:020000040800F2
:10000000D00500200101000889290008AD1B000867
:100010006D250008490D0008CD56000800000000BD
:10002000000000000000000000000000474600083B
:100030000512000800000000F93E00080151000808
:100040001B0100081B0100081B0100081B01000820
:100050001B0100081B0100081B0100081B01000810
:100060001B0100081B010008911800081B01000873
:100070001B0100081B0100081B0100081B010008F0
:100080001B0100081B0100081B0100081B010008E0
:100090001B0100081B0100081B0100081B010008D0
:1000A0001B0100081B0100081B0100081B010008C0
:1000B0001B0100081B010008655100081B01000816
:1000C0001B0100081B0100081B0100081B010008A0
:1000D0001B0100081B0100081B0100081B01000890
:1000E0001B0100081B0100081B010008DFF80CD0F1
:1000F00000F0E8FB00480047E9590008D00500205F
:100100000648804706480047FEE7FEE7FEE7FEE7B1
:10011000FEE7FEE7FEE7FEE7FEE7FEE70551000823
:10012000ED000008F0B480EA0102D40F4200B2EB07
:10013000410F02D20246084611464A0042D0C30D82
:10014000DDB2C1F3C752AD1A202D35DAC1F3160165
:1001500041F4000204B15242C5F1200602FA06F150
:100160002A411044B3EBD05F23D0C4B1012DA0EBE2
:10017000C35009DCF0BC4FF0004202EAC352DBB2CC
:1001800000F5000000F012BB400000F1807000EBB1
:10019000C350A0F1807040EAD170490009E04908DD
:1001A00041EAC071A0EBC35000F50000400800EB2D
:1001B000C350F0BC00F0F1BA6142012202EB4101F0
:1001C000001BF6E7F0BC704781F00041AAE780F021
:1001D0000040A7E780EA010210B502F000434000AA
:1001E00022D04A001FD0010E01EB1261C0F356006D
:1001F000C2F3560240F4000042F40002A0FB0220C9
:1002000000047F39140400D0401C50EA124001D48D
:100210004000491EC2B20C0604EBD010401C40083E
:10022000802A02D003E0002010BD20F00100002948
:1002300000DA0020184310BD30B480EA010202F059
:10024000004530F0004221F0004013D090B1C30DC2
:10025000D40DC2F31601C0F31600E41A41F40001F4
:1002600040F400027D34914201D3641C00E0490057
:10027000002C02DA30BC002070474FF4000000234D
:10028000914201D3891A034340084FEA4101F7D153
:1002900051B1914202D14FF0004105E002D24FF03E
:1002A000010101E06FF0010103EBC450284430BCB0
:1002B00000F073BA2DE9FE4F804681EA0300C00FBB
:1002C0000C46009021F0004123F00045B8EB0200FD
:1002D000A94105D24046214690461C460B4602469F
:1002E00023F00040104347D0270DC7F30A00C3F3A3
:1002F0000A510290401A019040286BDAC3F31300B0
:1003000040F4801B0098924620B10023D2EB030AF0
:1003100063EB0B0B01985946C0F14002504600F0C8
:100320000BFA06460D4650465946019A00F023FA4C
:1003300010EB08006141002487EA115284EAE77358
:100340001A4340D0009A62B3019A012A4FEA075239
:1003500015DC001B61EB02014FF0004202EA07527C
:10036000CDE90042001C41F5801132462B4600F0D9
:100370005AFA03B0BDE8F08F40462146F9E7001B6A
:1003800061EB0201001C41F5801300185B4120184D
:10039000A2F5001747EB030140EAD570B6196D418D
:1003A00011E06D084FEA360645EAC0754FEA07527C
:1003B000001B61EB0201001C41F5801149084FEA66
:1003C00030000019514132462B4603B0BDE8F04FD2
:1003D00000F01ABA0098012240000023D0EB02027C
:1003E00063EBE073009821464FEAE074B8EB00003D
:1003F00061EB0401E9E783F000435BE781F0004132
:1004000058E72DE9FE4F81EA030404F0004421F08F
:10041000004100944FF0000B23F0004350EA010428
:100420005ED052EA03045BD0C3F30A54C1F30A5509
:100430002C44A4F2F3340194A0FB0254C1F3130141
:1004400041F48011C3F3130343F4801301FB02440E
:1004500000FB034E840A970A44EA815447EA835713
:10046000A4FB076802958D0A05FB07854FEA932CCC
:1004700004FB0C542705029D4FEA065847EA16373D
:10048000B5EB08056EEB070C870E920E47EA811755
:1004900042EA8312A7FB0201B6EB0B0164EB0004F6
:1004A0002B0D43EA0C335E1844EB1C50DA465146E0
:1004B000E7FB0201C5F313044FEA0B3343EA14537D
:1004C0004FEA0432019C43EA0603A4F10C040294AF
:1004D000009CCDE900B400F0A6F903B0BDE8F08FB0
:1004E00000200146F9E72DE9F04D81EA030404F00C
:1004F000004B21F0004514464FF0000A23F0004164
:1005000050EA050220D054EA01021DD0C5F30A5773
:100510000246C5F31303C1F31300C1F30A5640F4B6
:10052000801543F48013A7EB0608101BD64608F28B
:10053000FD3873EB050002D308F1010801E09218C1
:100540005B41B8F1000F03DA00200146BDE8F08DF1
:1005500000204FF48011064684460EE0171B73EB13
:10056000050705D3121B63EB050306434CEA010C98
:1005700049084FEA300092185B4150EA0107EDD17B
:1005800052EA030012D082EA040083EA050108431C
:1005900005D0101BAB4106D20122002306E0002249
:1005A0004FF0004302E06FF0010253101AEB060017
:1005B0004CEB085110EB0A0041EB0B01BDE8F04D8C
:1005C00000F022B9C10F80EAE0700844CA07962300
:1005D000002100F0EBB896230022114600F0E6B8A7
:1005E0000EB540F2334102910021CDE900110A46D7
:1005F0000B4600F018F903B000BD20F00040C10D1B
:10060000C0F3160040F400007F2901DA0020704793
:10061000962903DCC1F19601C8407047963988409D
:100620007047C1F30A5210B5C1F3130140F2FF3312
:1006300041F480119A4201DA002010BD40F23343A8
:100640009A42A2F2334203DC524200F084F810BD19
:10065000904010BD00F0004230F000400AD0C10DC3
:1006600001F56071C0F3160042EA0151C20840076B
:1006700011437047002001467047000030B5041E4A
:1006800071F1000404DB4FF00044404264EB0101CF
:10069000141E73F1000405DB1C464FF00043524268
:1006A00063EB04038B4208BF824230BD01F000437C
:1006B00030B421F0004150EA010206D00A0DA2F543
:1006C0006072C1F31301002A02DC30BC00207047C5
:1006D000440F44EAC104C100E01830BC00EBC25032
:1006E00000F05BB8002801DBC0F10040002901DB0D
:1006F000C1F1004181427047002801DBC0F1004098
:10070000002901DBC1F100418842704730B50B463A
:10071000014600202022012409E021FA02F59D4231
:1007200005D303FA02F5491B04FA02F52844151E05
:10073000A2F10102F1DC30BD202A04DB203A00FAEC
:1007400002F1002070479140C2F1200320FA03F328
:10075000194390407047202A04DB203A21FA02F026
:100760000021704721FA02F3D040C2F120029140EB
:10077000084319467047202A06DBCB17203A41FA76
:1007800002F043EAE07306E041FA02F3D040C2F11E
:10079000200291400843194670470029A8BF7047BE
:1007A000401C490008BF20F00100704710B4B0FAA7
:1007B00080FC00FA0CF050EA010404BF10BC704742
:1007C00049B1CCF1200421FA04F411FA0CF118BF5C
:1007D000012121430843A3EB0C01CB1D4FEA00612B
:1007E0004FEA102042BF002010BC704700EBC350FE
:1007F00010440029A4BF10BC7047401C490008BF2A
:1008000020F0010010BC704710B5141E73F10004F5
:1008100008DA401C41F1000192185B411A4301D1F2
:1008200020F0010010BD2DE9F04D92469B4611B11C
:10083000B1FA81F202E0B0FA80F220329046FFF77E
:100840007BFF04460F4640EA0A0041EA0B0153468B
:100850005A46084313D0114653EA010019D0C8F193
:1008600040025046FFF777FF05460E465046594670
:100870004246FFF761FF084305D0012004E020460F
:100880003946BDE8F08D0020054346EAE0762C436A
:1008900037430A986305E40AA0EB08000022FD0A2A
:1008A00044EA47540A3002D500200146E9E7010531
:1008B00010196941DDE9084500196941BDE8F04DAD
:1008C000A2E70000064C074D06E0E06840F0010397
:1008D00094E8070098471034AC42F6D3FFF70AFCBF
:1008E000BC690008DC69000870B58C1810F8015B61
:1008F00015F0070301D110F8013B2A1106D110F8B9
:10090000012B03E010F8016B01F8016B5B1EF9D1BC
:100910002B0705D40023521E0DD401F8013BFAE742
:1009200010F8013BCB1A921C03E013F8015B01F8AD
:10093000015B521EF9D5A142D8D3002070BD000042
:100940002DE9F0410A498888FFF745FE8046FFF708
:1009500081FE06464FF06632064BFFF752FD044615
:10096000FFF7A4FE0449086008460068BDE8F0816E
:100970001C00002066664A3F2400002001480088D1
:10098000704700001C0000200148408870470000AC
:100990001C00002021B1826842F00102826003E065
:1009A000826822F001028260704721B1826842F4BD
:1009B0008072826003E0826822F4807282607047F5
:1009C000014600208A6802F004020AB1012000E01A
:1009D0000020704730B502460020002350680F4CBD
:1009E00020400D790C6844EA05242043506090684B
:1009F0000B4C2040D1E902542C434D7944EA450484
:100A000020439060D06A20F470000C7C641EE4B235
:100A1000234340EA0350D06230BD0000FFFEF0FFE8
:100A2000FDF7F1FFF0B504460D4600200021092D29
:100A300011DDE068A5F10A0606EB4607072606FA6F
:100A400007F18843A5F10A0606EB460603FA06F10C
:100A50000843E0600CE0206905EB4507072606FA2D
:100A600007F1884305EB450603FA06F108432061C8
:100A7000072A0FDA606B561E06EB86071F2606FA5A
:100A800007F18843561E06EB860605FA06F1084371
:100A9000606322E00D2A0FDA206BD61F06EB860773
:100AA0001F2606FA07F18843D61F06EB860605FACD
:100AB00006F10843206310E0E06AA2F10D0606EBA0
:100AC00086071F2606FA07F18843A2F10D0606EBFA
:100AD000860605FA06F10843E062F0BD21B182689E
:100AE00042F4A002826003E0826822F4A0028260E5
:100AF0007047816841F004018160704710B500F0D3
:100B000035F800F003F800F059F810BD00B58BB0CF
:100B10000121084603F03AFA114800F0AFFA1148F3
:100B200000901148019000200290032003900020C3
:100B300004908020059040000690800007902020BF
:100B400008900002099000200A906946044800F0CD
:100B50003BFB0121024800F085FA0BB000BD00000C
:100B6000080002404C2401401C00002008B501216F
:100B7000082003F02BFA0320ADF8000000208DF8C8
:100B8000030003208DF8020069460A4800F060FF68
:100B90000121042003F01AFA8020ADF800000020A3
:100BA0008DF8030003208DF802006946024800F02A
:100BB0004FFF08BD000C01400008014000B585B0A2
:100BC0000121480203F002FA0020009001208DF874
:100BD00004008DF805004FF460200290002003907F
:100BE00003208DF8100069461748FFF7F3FE4FF415
:100BF000404003F0BFF90723012208211248FFF704
:100C000011FF0723022209210F48FFF70BFF0723DB
:100C1000032219460C48FFF705FF01210A48FFF798
:100C2000C4FE01210848FFF7B5FE0748FFF761FF42
:100C300000BF0548FFF7C4FE0028FAD10121024891
:100C4000FFF74CFF05B000BD0024014008B50121AD
:100C5000042003F0BBF94FF41060ADF80000182039
:100C60008DF8030003208DF802006946014800F06A
:100C7000EFFE08BD0008014000B58BB00121C8029D
:100C800003F0A4F940F60F60ADF824000020ADF8A1
:100C90002000ADF82600ADF822008DF8280008A944
:100CA000284804F0C1FB6020ADF810000120ADF829
:100CB00012000420ADF814000020ADF81600ADF8C5
:100CC0001800ADF81A004FF48070ADF81C00002039
:100CD000ADF81E0004A91B4804F000FB08211948C8
:100CE00004F048FB0020ADF8160004A9154804F0F4
:100CF0004BFB0821134804F085FB0020ADF80000F1
:100D0000ADF802004FF48070ADF804000B20ADF890
:100D100006000020ADF808004FF40050ADF80A00BE
:100D20000020ADF80C006946064804F089FA01215C
:100D3000044804F09BFA0121024804F0A3FA0BB026
:100D400000BD0000002C014000BFFEE710B55A486E
:100D50000078002857D159480068FFF74EFCC0B210
:100D60000C281AD004DC052807D0092849D105E051
:100D70000F2821D0142844D12DE043E050480088AA
:100D80005049098848435049884205DD4C4800884D
:100D900091FBF0F04B49088034E04948008849490C
:100DA000098848434849884205DD4548008891FB49
:100DB000F0F04449088025E041480088414909880D
:100DC00048434249884205DD3D48008891FBF0F0E8
:100DD0003C49088016E03A4800883A490988484367
:100DE0003B4909683B4A1144884209D938480068A0
:100DF0001146084432490988B0FBF1F031490880B6
:100E000000E000BF57E02D480068FFF7F6FBC0B2D6
:100E10000C281AD004DC052807D0092849D105E0A0
:100E20000F2821D0142844D12DE043E02448008825
:100E30002449098848432449884205DD214800881F
:100E400091FBF0F01E49088034E01D4800881D49E0
:100E5000098848431C49884205DD1A48008891FBEF
:100E6000F0F01749088025E01548008815490988E1
:100E700048431649884205DD1248008891FBF0F08E
:100E80000F49088016E00E4800880E49098848433B
:100E90000F4909680F4A1144884209D90C48006873
:100EA0001146084407490988B0FBF1F0044908805D
:100EB00000E000BF00BF10BD660000205800002009
:100EC000620000206400002020BF0200E86E0300E2
:100ED0007000002010EB090010B503F027F904465C
:100EE00004F4004018B900201A49087007E004F41F
:100EF0000040B0F5004F02D101201649087004F4FB
:100F0000804030B9002003F0FBFC0020124908703B
:100F10000AE004F48040B0F5804F05D1012003F0D1
:100F2000EFFC01200C49087004F4005030B9002097
:100F300003F0C6FC0020094908700AE004F40050E0
:100F4000B0F5005F05D1012003F0BAFC0120034990
:100F5000087010BD3500002036000020370000204A
:100F600000B51648007801280CD11548008840F2D9
:100F7000DC51884209DB0120124908700D2001F084
:100F80003DFA02E000200E4908800F480078012851
:100F90000FD10E4800680E4988420DD30D480078E5
:100FA000012809D10220074908700D2001F026FA16
:100FB00002E000200549086000BD00007500002027
:100FC000760000206A000020780000207C000020CD
:100FD000C07A10006100002070B50446FFF7D4FC11
:100FE0001D491E4A127821F812001C480078401C46
:100FF0001A4908700846007814282BD11421164885
:1010000004F0B3FC0020154908700FE012491348A2
:101010000078401D31F81000114909680844104952
:1010200008600E480078401C0C4908700B48007896
:101030000A28EBDB0A4800680A21B0FBF1F52846D4
:10104000FFF7C9FA206000200449087004490860CD
:10105000012070BD0020FCE7A80100205000002006
:101060005400002021B1026842F00102026004E055
:1010700002684FF6FE731A400260704701684FF62F
:10108000FE72114001600021016041608160C16019
:101090004B49884208D14A490839496841F00F0153
:1010A000474A083A51608AE045491431884208D1DC
:1010B00043490839496841F0F001414A083A516012
:1010C0007DE03F492831884208D13D4908394968C7
:1010D00041F470613A4A083A516070E038493C3155
:1010E000884208D136490839496841F47041344A88
:1010F000083A516063E032495031884208D13049A2
:101100000839496841F470212D4A083A516056E087
:101110002B496431884208D129490839496841F48A
:101120007001274A083A516049E0254978318842E0
:1011300008D123490839496841F07061204A083ACA
:1011400051603CE01F49884206D1011F096841F007
:101150000F01021F116032E01A491431884208D190
:101160001849091F096841F0F001164A121F116061
:1011700025E014492831884208D11249091F09681D
:1011800041F470610F4A121F116018E00D493C31A3
:10119000884208D10B49091F096841F47041094A86
:1011A000121F11600BE007495031884207D10549F1
:1011B000091F096841F47021024A121F116070472B
:1011C000080002400804024010B50022026847F6F9
:1011D000F0739A430C6A8B6823430C6923434C6970
:1011E00023438C692343CC6923434C6A23438C6A91
:1011F00023431A430260CB6843600B6883604B68EB
:10120000C36010BD7047002107E042F6E06100BFF7
:101210000A1EA1F1010399B2FAD1021EA0F1010345
:1012200098B2F2D17047002106E00C2100BF0A1EDF
:10123000A1F1010399B2FAD1021EA0F1010398B203
:10124000F3D170472DE9F843002500246846FFF7E5
:10125000C3FE01283CD101254FF083410098FEF7E1
:10126000B9FF80461C49FEF7AFFF07461B49FEF752
:10127000E3FF0646FFF7C1F984B20A2094FBF0F0C1
:1012800017490880052C00DA00244FF47A7094FB8B
:10129000F0F6012332460321184602F0C5FC2E2247
:1012A0000421012002F050FC4FF47A7094FBF0F11D
:1012B00000FB1146032332460521012002F0B4FC55
:1012C00007480088B0F5AF7F02DD032003F008FB7C
:1012D0002846BDE8F88300000000D8410000204106
:1012E000280000202DE9F047002400250C2602F0FC
:1012F000BAFA0B220221084602F060FC0E220421F9
:10130000022002F05BFC07220621022002F056FCBC
:1013100008221146022002F051FC7FA20A2102207D
:1013200002F0DAFC00F0E0FF18B1012600F0B6FF91
:1013300003E07A48007800B108260025E4E000F0D8
:10134000CFFF00F0FBFF07467549FEF743FF7549E5
:10135000086008460068FFF750F9C4B24FF08241B8
:1013600070480068FFF7BEF913D20722022103205C
:1013700002F024FC08220421032002F01FFC0F22AB
:101380000621032002F01AFC67A20821032002F0C4
:10139000A3FC634963480068FFF7A4F925D2012341
:1013A00022460C21022002F03FFC2E220D210220B9
:1013B00002F0CAFB2046FFF70EF982465948016841
:1013C0005046FEF704FF81465949FEF703FF804669
:1013D000FFF713F9074602233A460E21184602F09A
:1013E00023FCC820FFF70FFF24E0022322460B2135
:1013F000184602F019FC2E220D21022002F0A4FB57
:101400002046FFF7E8F88246464801685046FEF756
:10141000DEFE81464649FEF7DDFE8046FFF7EDF829
:10142000074602233A460E21184602F0FDFBC8206B
:10143000FFF7E9FE4FF081413A480068FFF75CF999
:1014400009D83C4937480068FFF74CF903D83A48B7
:101450003449086052E04FF0824132480068FFF79B
:101460004BF909D82E492F480068FFF73BF903D8FC
:1014700032482C49086041E031492A480068FFF7AA
:101480003BF909D82F4927480068FFF72BF903D803
:101490002D482449086031E02C4922480068FFF7B4
:1014A0002BF90AD84FF083411E480068FFF71AF95C
:1014B00003D827481B49086020E0264919480068DE
:1014C000FFF71AF909D8244916480068FFF70AF906
:1014D00003D822481349086010E01F4911480068EA
:1014E000FFF70AF90AD202F0BEF91DA20421022078
:1014F00002F0F2FB01E000F0F3FEFCE709480068AF
:1015000003F084FC681CC5B2B542FFF618AF03F0C7
:10151000B1F8BDE8F08700003A0000003500002077
:101520000000204158000020203E3D203956000098
:101530000000C8420000C0400000A0400000104170
:101540000000304100005041000040410000604177
:1015500000007041000098410000B0410000A0412F
:101560004661756C745F566F6C00000010B54B4897
:1015700000884B49098848434A4908600846006882
:1015800049490968884234D046480068464908609D
:1015900044480068454988422CD24248006842F2DB
:1015A0001071B0FBF1F4012322460B21184602F022
:1015B0003BFB2E220C21012002F0C6FA39480068BC
:1015C00042F21071B0FBF1F201FB12006421B0FB9A
:1015D000F1F4022322460D21012002F025FB2022F6
:1015E0000F21012002F0B0FA20221021012002F088
:1015F000ABFA51E02B4800682D49884227D2294890
:10160000006842F21071B0FBF1F4022322460B2174
:10161000012002F009FB2E220D21012002F094FA94
:101620002048006842F21071B0FBF1F201FB120099
:101630006421B0FBF1F4022322460E21012002F0C6
:10164000F3FA20221021012002F07EFA24E015484E
:10165000006842F21071B0FBF1F4032322460B2123
:10166000012002F0E1FA2E220E21012002F06CFA94
:101670000C48006842F21071B0FBF1F201FB12005D
:101680006421B0FBF1F4022322460F21012002F075
:10169000CBFA012003F024F910BD00002A0000203D
:1016A000280000202C00002044000020A08601001B
:1016B00040420F00F8B5684604F00AF801286FD1DF
:1016C00038490098FEF786FD06463749FEF72AFDA1
:1016D00005463649FEF7B0FD0446FEF78EFF344955
:1016E000088008460088B0F57A7F22DA084600882C
:1016F000642190FBF1F4012322460321022002F031
:1017000093FA2E220421022002F01EFA28480088B3
:10171000642190FBF1F201FB120402232246052111
:10172000184602F081FA20220721022002F00CFA6A
:101730001CE01F480088642190FBF1F4022322463C
:101740000321184602F070FA2E220521022002F031
:10175000FBF917480088642190FBF1F201FB1204A9
:10176000022322460621184602F05EFA00F018FA1B
:101770000F490988401A64280FDD02F0FDFC60B9AA
:101780000C480078401C0B49087008460078022875
:1017900006DB022003F0A4F802E0002005490870EF
:1017A000F8BD00000000A242000044420000C84210
:1017B0002A000020400000200EB500200290019079
:1017C00000900122114602A800F026FA9DF80800B8
:1017D000FF2802D09DF8080040B904202B4908706A
:1017E00001221146294800F0F5FA4EE09DF8080064
:1017F000FC2824D102229DF8081001A800F00CFA60
:101800009DF80800801CC1B20222684600F004FA6C
:1018100004201E49087002220846017801A800F041
:10182000D9FA1A480078801CC1B20222684600F03A
:10183000D1FA01221146154800F0CCFA25E0022227
:101840009DF8081001A800F0E7F99DF80800801C39
:10185000C1B20222684600F0DFF99DF80800001DC1
:101860000A49087002220846017801A800F0B2FA7D
:1018700006480078801CC1B20222684600F0AAFA2D
:1018800001221146014800F0A5FA0EBD800000209B
:1018900010B5102000F01AF858B14021074800F0A8
:1018A00062F918B1052000F0A9FD02E0062000F061
:1018B000A5FD102000F004F810BD00000008014054
:1018C00001490860704700001404014001460020EF
:1018D0000022074B1B6803EA0102054B14331B6807
:1018E0000B4013B10AB1012000E000207047000056
:1018F00000040140002123498279002A3AD00A4697
:10190000126803689A430B461A600A1D126803683E
:101910009A430B1D1A60027911440A6803681A433E
:101920000A60184A0832126803689A43154B083354
:101930001A601A1D126803689A43124B0C331A601E
:101940004279102A0ED11A1F126803681A430D4BF0
:1019500008331A601A1D126803681A43094B0C33C6
:101960001A600DE00749427911440A6803681A4376
:101970000A6005E0027911440A6803689A430A6024
:10198000704700000004014010B500F02BF800F093
:1019900001F810BD0EB50121042002F007FB42F250
:1019A0000F70ADF804004720ADF800000020ADF83E
:1019B0000600ADF802008DF808006946084803F0FB
:1019C00033FD0121064803F04BFC01221146044877
:1019D00003F07BFC0121024803F048FC0EBD00002F
:1019E0000008004008B54FF4E06001F007F81E2041
:1019F0008DF8000000208DF8010003208DF8020012
:101A000001208DF80300684600F0C0FF08BD00000B
:101A100030B500228B071C0F0F2303FA04F20B4B87
:101A20008C1053F824309343084C8D1044F8253023
:101A300023468C1053F824308C07240F00FA04F44A
:101A40002343024C8D1044F8253030BD080001407E
:101A50002DE9F04102460025002600200023002445
:101A6000002791F803C00CF00F0591F803C00CF0AB
:101A7000100CBCF1000F03D091F802C04CEA050530
:101A800091F800C0BCF1000F31D0146800202BE0A9
:101A90004FF0010C0CFA00F3B1F800C00CEA030699
:101AA0009E4220D183004FF00F0C0CFA03F7BC4389
:101AB00005FA03FC4CEA040491F803C0BCF1280FBA
:101AC00006D14FF0010C0CFA00FCC2F814C00AE079
:101AD00091F803C0BCF1480F05D14FF0010C0CFA8E
:101AE00000FCC2F810C0401C0828D1D31460B1F823
:101AF00000C0BCF1FF0F34DD546800202EE000F17F
:101B0000080C4FF0010808FA0CF3B1F800C00CEA19
:101B100003069E4221D183004FF00F0C0CFA03F70D
:101B2000BC4305FA03FC4CEA040491F803C0BCF181
:101B3000280F05D100F1080C08FA0CF8C2F814803F
:101B400091F803C0BCF1480F07D100F1080C4FF029
:101B5000010808FA0CF8C2F81080401C0828CED3FF
:101B60005460BDE8F0810246002093680B400BB141
:101B7000012000E00020704702460020D3680B409F
:101B80000BB1012000E00020704741617047016106
:101B90007047000001480078704700007400002082
:101BA00001480088704700006200002000BFFEE787
:101BB00021B1028842F48062028004E002884FF67C
:101BC000FF331A400280704770B50246002400259A
:101BD00000230020958A138B1B0445EA030626F098
:101BE0007F4404EA01068E4201D1012000E000207A
:101BF00070BD002221F07F42D3438382704721B120
:101C0000028842F00102028004E002884FF6FE736F
:101C10001A4002807047000070B505460E46144613
:101C20004FF420406649086009E065490868411E94
:101C3000634A116018B9092000F0F8FA70BD4FF43A
:101C40000031604800F044FA0028EED101215D48DF
:101C500000F026FA4FF480505949086009E05849CD
:101C60000868411E564A116018B90A2000F0DEFAD1
:101C7000E4E755495348FFF7A7FF0028EFD0534842
:101C8000017800224F4800F0C6FA4FF480504C49CA
:101C9000086009E04A490868411E494A116018B9BC
:101CA0000B2000F0C3FAC9E749494648FFF78CFF0B
:101CB0000028EFD001214348FFF7A1FF31464148FA
:101CC00000F0B2FA4FF480503D49086009E03C4909
:101CD0000868411E3A4A116018B90C2000F0A6FAB3
:101CE000ACE73B49891C3748FFF76EFF0028EED070
:101CF0000121344800F0D4F94FF480503049086095
:101D000009E02F490868411E2D4A116018B90D20BD
:101D100000F08CFA92E72C492A48FFF755FF00287B
:101D2000EFD02A4801780122264800F074FA4FF4D7
:101D300080502349086009E021490868411E204A73
:101D4000116018B90E2000F071FA77E71E49491C9E
:101D50001C48FFF739FF0028EED029E0012C0AD1FA
:101D600000211848FFF724FF0121164800F0A4F9CC
:101D70000520FFF758FA4FF420401149086009E0A8
:101D80000F490868411E0E4A116018B9032000F07F
:101D90004DFA53E70C493F310A48FFF715FF002879
:101DA000EED0084800F033FA28706D1C601E84B233
:101DB000002CD3D101210348FFF7FAFE01203DE7B3
:101DC0007801002000580040010003007401002049
:101DD000820007002DE9F04707460D4614464FF0F4
:101DE0000008C146C24600262846E91705EB517196
:101DF000C910A5EBC10101F0FF0ACAF10800C6B283
:101E00002046E11704EB5171C1F3C708E11704EB59
:101E10005171C910A4EBC10101F0FF09BAF1000F23
:101E200028D1B8F1000F07D14A462946384600F0BC
:101E30006DF800F007F960E00AE00822294638460C
:101E400000F064F800F0FEF805F10800C5B20837AC
:101E5000B8F10000A8F1010101F0FF08EDD1B9F1DE
:101E6000000F4AD04A462946384600F04FF800F0A5
:101E7000E9F842E0B8F1000F07D14A462946384652
:101E800000F044F800F0DEF837E0A01B84B22046F2
:101E9000E11704EB5171C1F3C708E11704EB51716D
:101EA000C910A4EBC10101F0FF094EB13246294629
:101EB000384600F02BF800F0C5F8A819C5B2374431
:101EC0000AE008222946384600F020F800F0BAF867
:101ED00005F10800C5B20837B8F10000A8F101010A
:101EE00001F0FF08EDD1B9F1000F06D04A462946AE
:101EF000384600F00BF800F0A5F8BDE8F0870000C8
:101F0000A0200149088070477401002070B5044684
:101F10000E4615464FF420404549086009E0444903
:101F20000868411E424A116018B9042000F07EF989
:101F300070BD4FF400313F4800F0CAF80028EED1E0
:101F400001213C4800F0ACF84FF48050384908605B
:101F500009E037490868411E354A116018B9052063
:101F600000F064F9E4E734493248FFF72DFE002819
:101F7000EFD03248017800222E4800F04CF94FF49F
:101F800080502B49086009E029490868411E284A09
:101F9000116018B9062000F049F9C9E72849254819
:101FA000FFF712FE0028EFD03146224800F03CF93E
:101FB0004FF480501E49086009E01D490868411E21
:101FC0001B4A116018B9072000F030F9B0E71C492E
:101FD000891C1848FFF7F8FD0028EED01AE0217898
:101FE000144800F021F9641C4FF480501049086037
:101FF00009E00F490868411E0D4A116018B9082010
:1020000000F014F994E70E49891C0A48FFF7DCFD3B
:102010000028EED0281EA5F10101CDB2DFD10121AB
:10202000044800F049F80520FFF7FDF801207FE79C
:1020300078010020005800400100030074010020D6
:102040008200070008B50020009000BF0121114860
:1020500000F026F814210F4800F0CEF800900E484A
:10206000017800220B4800F0D6F81421094800F04E
:10207000C3F800F002000028E8D008490548FFF73F
:10208000B8FD0121034800F017F80520FFF7CBF851
:1020900008BD00000058004074010020000400103A
:1020A00021B1028842F48072028004E002884FF677
:1020B000FF631A400280704721B1028842F4007227
:1020C000028004E002884FF6FF531A4002807047F6
:1020D0000CB50246002000230193009300920B0FE1
:1020E000019321F07F41019B1BB1009B14330093AE
:1020F00003E0090C009B18330093009B1B680B4006
:102100000BB1012000E000200CBD00002DE9F043E0
:1021100085B004460D460026B1460427DFF8CC8082
:10212000A6884FF6C0700640684601F069FFDDF8EA
:1021300008802F48B8FBF0F01FFA80F946EA09063C
:10214000A68020884FF6FE7108402080002629498D
:10215000286888420CD828684000B8FBF0F087B2A5
:10216000042F00DA04273E4309F10100208427E010
:10217000E8884BF6FF71884206D1286800EB4000E2
:10218000B8FBF0F087B209E0286800EBC00101EB72
:102190000010B8FBF0F087B247F48047C7F30B009C
:1021A00008B947F0010747F4004006434FF4967022
:1021B00009FB00F04FF47A7190FBF1F0401C208491
:1021C000A683208840F00100208026884FF6F53055
:1021D0000640A8886989084306432680A88929897A
:1021E0000843208105B0BDE8F083000000127A00AA
:1021F00040420F00A086010008B502460020009072
:1022000000920098084400900098008808BD01469C
:10221000088AC0B2704712B141F0010102E04FF6E6
:10222000FE731940018270470182704710B5044661
:10223000214602A003F09CFA002010BD3C3C2D4535
:102240004550524F4D2D4552524F522D3E3E204942
:10225000324320B5C8B4FDB3ACCAB1216572726F08
:1022600072436F6465203D2025640A0010B5044662
:10227000214602A003F07CFA002010BD4932432021
:10228000B5C8B4FDB3ACCAB12120B4EDCEF3B4FAF5
:10229000C2EB3A2045565F25640D0A0010B57D203B
:1022A00001F018FF08B101F0A1FE10BD70B50546A0
:1022B0000C4645F2555000F03BF8284600F02CF84B
:1022C000204600F02FF800F01FF800F001F870BD74
:1022D0004CF6CC40014908607047000000300040D7
:1022E00010B500F011F810BD10B57D2001F0F2FE20
:1022F00008B1012010BD0020FCE710B540F2DC5110
:102300000420FFF7D3FF10BD4AF6AA200149086058
:1023100070470000003000400149486070470000ED
:1023200000300040014988607047000000300040E4
:1023300001490860704700000030004030B595B09A
:102340000024002500BF09E00120FEF75CFFFEF736
:10235000F7FA01A941F82400601CC4B2142CF3DB85
:10236000142101A803F0CEFA002409E001AA601D9F
:1023700052F820102846FDF7D5FE0546601CC4B271
:102380000A2CF3DB02492846FDF756FF15B030BD95
:102390000000204108B50121082001F017FE4FF48C
:1023A000E040ADF8000004208DF8030069460248C3
:1023B000FFF74EFB08BD0000000C014010B50B48B4
:1023C000007808B9FEF7CCFD08480078C0EBC000E3
:1023D0000749084407490978445C14B1002000F01B
:1023E0000DF8054951F82400804710BD6000002019
:1023F000A000002061000020040100200E2801DA66
:10240000014908707047000060000020072801DAC9
:1024100001490870704700006100002010B500F00D
:1024200043F8204908700846007818B902F0DEF831
:102430001C4908701B4800780B2830D2DFE800F0F8
:1024400006070B0F13171B1F23272B0028E0012063
:10245000FFF7D4FF24E00220FFF7D0FF20E00320A5
:10246000FFF7CCFF1CE00720FFF7C8FF18E00820AB
:10247000FFF7C4FF14E00920FFF7C0FF10E00A20B7
:10248000FFF7BCFF0CE00B20FFF7B8FF08E00C20C3
:10249000FFF7B4FF04E00420FFF7B0FF00E000BF47
:1024A00000BF10BD340000202DE9FC4100240027AE
:1024B0004FF4FA7596262A4903C9CDE9000100BFF9
:1024C0004AE03DF814102748FFF74DFB012841D1A1
:1024D00025480078322804DA002023490870BDE836
:1024E000FC8109E0681E85B242F6E06700BF381E35
:1024F000A7F101018FB2FAD13DF814101948FFF786
:1025000032FB012801D1002DECD1E5B109E0701EAC
:1025100086B242F6E06700BF381EA7F101018FB214
:10252000FAD13DF814100F48FFF71DFB08B9002E33
:10253000EDD116B9601CC0B2D1E79620FEF763FE5C
:10254000201DC0B2CBE72DB9002007490870E01D5F
:10255000C0B2C4E7601CC4B2032CB2DB0020BEE7EB
:10256000AC690008000C01405D00002000BFFEE7E0
:1025700010B512A20121032001F0AEFB3C22012183
:10258000032001F0E1FA3E221021032001F0DCFAE1
:1025900003220521104601F011FB0422072103202C
:1025A00001F00CFB10220921032001F007FB1B2284
:1025B0000B21032001F002FB10BD00002020202091
:1025C000202020202020202020202020000000008B
:1025D00010B50FA20121032001F07EFB3C22012156
:1025E000032001F0B1FA3E221021032001F0ACFAE1
:1025F00000220621032001F0E1FA01220821032034
:1026000001F0DCFA02220A21032001F0D7FA10BD02
:1026100020202020202020202020202020202020BA
:102620000000000010B512A20121032001F054FBAC
:102630003C220121032001F087FA3E2210210320D1
:1026400001F082FA05221146032001F0B7FA0822B0
:102650000721032001F0B2FA10220921032001F022
:10266000ADFA1B220B21032001F0A8FA10BD0000D7
:10267000202020202020202020202020202020205A
:102680000000000010B512A20121032001F024FB7C
:102690003C220121032001F057FA3E2210210320A1
:1026A00001F052FA0D220521032001F087FA1C22C5
:1026B0000721032001F082FA1D220921032001F0E5
:1026C0007DFA1E220B21032001F078FA10BD0000D4
:1026D00020202020202020202020202020202020FA
:1026E0000000000070B5044601F020FD054626A25A
:1026F0000121042001F0F0FA20220121042001F040
:102700005DFA21220321042001F058FA3A22052122
:10271000042001F019FA74B94DF6FF7005402846FF
:1027200003F01CF8002002F0CBF81CA20E210420BC
:1027300001F0D2FA26E0012C0DD145F400552846CF
:1027400003F00CF8012002F0BBF815A20D210420C3
:1027500001F0C2FA16E0022C14D105F4005018B1B1
:10276000B0F5005F0CD105E00CA20E21042001F0B1
:10277000B3FA06E00AA20D21042001F0ADFA00E050
:1027800000BF00BF70BD000020202020202020209E
:102790002020202020202020000000003635570077
:1027A000313030570000000070B5044601F0BEFC27
:1027B00005463CA20121042001F08EFA20220121CD
:1027C000042001F0FBF921220321042001F0F6F995
:1027D0003A220521042001F0B7F974B94BF6FF70D5
:1027E0000540284602F0BAFF002002F089F832A224
:1027F0000E21042001F070FA53E0012C3AD145F487
:102800008045284602F0AAFF012002F079F82BA2A9
:102810000121032001F060FA2DA20121042001F022
:102820005BFAFFF75DFD4FF4FA60FEF7ECFCFFF793
:1028300057FD1CA20121032001F04EFA19A201212B
:10284000042001F049FAFFF7EDFE202201210420C7
:1028500001F0B4F921220321042001F0AFF93A225A
:102860000521042001F070F91DA20E21042001F0C1
:1028700033FA16E0022C14D105F4804018B1B0F5FB
:10288000804F0CD105E00CA20E21042001F024FAA7
:1028900006E013A20E21042001F01EFA00E000BFA2
:1028A00000BF70BD202020202020202020202020BC
:1028B0002020202000000000323556004D75737432
:1028C000206265206F7065726174656400000000AD
:1028D0006F6E206C6F6164202021212100000000B8
:1028E0003333560070B5044601F020FC054621A2A2
:1028F0000121042001F0F0F920220121042001F03F
:102900005DF921220321042001F058F93A22052122
:10291000042001F019F93CB9C5F30E0513220F216B
:10292000042001F04BF920E0012C07D145F40045CB
:1029300014220F21042001F041F916E0022C14D1D9
:1029400005F4004018B1B0F5004F0CD105E013229A
:102950000F21042001F032F906E014220F21042097
:1029600001F02CF900E000BF00BF284602F0F6FE9F
:1029700070BD0000202020202020202020202020AA
:1029800020202020000000007047000070B50021CA
:1029900000230F22C47804B3154C246804F4E064C7
:1029A000C4F5E064210AC1F10403CA40447804FA82
:1029B00003F184781440214309010E4C0678A15597
:1029C000047804F01F050124AC4005786D11AD00BA
:1029D00005F1E025C5F8004109E0047804F01F0581
:1029E0000124AC40044D0678761145F8264070BDB0
:1029F0000CED00E000E400E080E100E0024901436A
:102A0000024A1160704700000000FA050CED00E07A
:102A100010B500249D48007800287DD19C4800789E
:102A20000A2812D19B48008800F2DC509A49098894
:102A300088420ADB01F0A0FB00B901249648008817
:102A400000F57A7094490880B1E0914800780B282D
:102A500024D19048008800F516608F490988884283
:102A60001CDB8D48008864308B4908808B498C487A
:102A70000068FDF737FEE7D1874800886438B0F575
:102A80007A7FE1DC012001F067FB4FF49670FEF7DE
:102A9000BAFB002001F060FB012488E07C4800784C
:102AA0000D2824D17B48008800F6BA107A4909889D
:102AB00088421CDB784800880A30774908807749CB
:102AC00077480068FDF70EFE71D1734800880A3818
:102AD000B0F57A7F6BDC012001F03EFB4FF496707D
:102AE000FEF791FB002001F037FB01245FE068480E
:102AF00000780E285BD16748008800F6C31066494D
:102B00000988884253DB64480088401C6249088079
:102B100062496348006800E014E0FDF7E3FD46D138
:102B20005D480088401EB0F57A7F40DC012001F04E
:102B300013FB4FF49670FEF766FB002001F00CFBD0
:102B4000012434E05148007860B3564800780B28DF
:102B50000AD155480088B0F5FA7F05DC5248008854
:102B600064305149088022E04E4800780D280BD18E
:102B70004D48008840F24E21884205DC4A480088D2
:102B80000A304949088012E0464800780E280AD1E8
:102B900045480088B0F5167F05DA43480088401C98
:102BA0004149088003E04FF416703F490880FEF762
:102BB000CDF89CB138490988A1F57A7188B201F045
:102BC00061FB4FF4AF7001F03DFB3348008801F02A
:102BD000FFFB3548008801F035FB03E02E480088F4
:102BE00001F050FB3048008801F02CFB8CB3072229
:102BF0000121032000F0E2FF08220321084600F033
:102C0000DDFF11220521032000F0D8FF1222072149
:102C1000032000F0D3FF3A220921032000F094FFA3
:102C200005220121042000F0C9FF0622032104200F
:102C300000F0C4FF10220521042000F0BFFF122283
:102C40000721042000F0BAFF3A220921042000F0F5
:102C50007BFF01F0F5FF0D48007810B902F07EF817
:102C600004E00A48007808B102F038F80A48008801
:102C700001F0F6FC0C48008801F0E6FC00200B494E
:102C800008800A20FEF7BFFA10BD00006600002091
:102C9000670000206C000020620000200000A040BF
:102CA000580000206800002064000020760000200A
:102CB00010B50F48007850B90B200E49087001205C
:102CC0000B49087001F0BCFF02F008F80CE008485E
:102CD000007848B10B2008490870002004490870AA
:102CE00001F0AEFF02F03AF800200449088010BD60
:102CF00066000020680000206700002076000020A9
:102D000010B511220721032000F058FF1F220921CE
:102D1000032000F053FF4FF4FA70FEF774FA0D49E8
:102D20000D4A127851F8220080470CA2012104209C
:102D300000F0D2FF0E4A0521042000F0CDFF012053
:102D40000C49087000200C4908600420FFF75EFB66
:102D500010BD0000900000206B00002020202020EB
:102D600020202020202020202020202000000000E3
:102D7000B2690008750000207C00002010B501F049
:102D80001FFE0CA20121042000F0A6FF192207213A
:102D9000042000F013FF1A220921042000F00EFF86
:102DA0000120094908700020084908600320FFF746
:102DB0002DFB10BD3C202020202020202020202082
:102DC0002020203E00000000750000207C00002034
:102DD00010B507220121032000F0F0FE0822032194
:102DE000084600F0EBFE11220521032000F0E6FE6C
:102DF00012220721032000F0E1FE3A2209210320DC
:102E000000F0A2FE05220121042000F0D7FE0622D8
:102E10000321042000F0D2FE10220521042000F03E
:102E2000CDFE12220721042000F0C8FE3A2209211B
:102E3000042000F089FE01F003FF0020084908701B
:102E40000B200849087001F089FF0120064908702D
:102E50000020064908600220FFF7D8FA10BD0000E4
:102E60006600002067000020750000207C00002024
:102E700010B501200E49087000F0F5FC0122202158
:102E8000104600F007FE4FF4FA70FEF7BCF900F0B0
:102E9000EAFC002000F0FCFC012001F05DF90020BC
:102EA00004490870044908600520FFF7AFFA10BD17
:102EB00074000020780000207C00002010B51A4823
:102EC0000078A8B9194800780A2811D01748007866
:102ED000401E16490870084600780C2803D10846A1
:102EE0000078401E087001F0ABFE01F037FF17E0DC
:102EF0000D480078A0B10E4800780B2810D00C487F
:102F00000078401E0A490870084600780C2803D152
:102F100008460078401E087001F092FE01F0DEFEC7
:102F200000200449088010BD6600002067000020D2
:102F3000680000207600002010B51348007830B1FA
:102F400001280FD0022811D0032817D112E00FA2B8
:102F50000121042000F0C0FE114A0521042000F0E8
:102F6000BBFE0CE00120FFF7BDFC08E00120FFF7ED
:102F70001BFC04E00120FFF7B5FB00E000BF00BF31
:102F800000200849088010BD6B0000202020202070
:102F900020202020202020202020202000000000B1
:102FA000B26900087600002010B51D48007800289E
:102FB00005DD1B480078401E1949087002E0032017
:102FC000174908701749164A127851F822008047AD
:102FD0001348007830B101280FD0022811D00328FF
:102FE00017D112E010A20121042000F075FE134A4F
:102FF0000521042000F070FE0CE00220FFF772FCB7
:1030000008E00220FFF7D0FB04E00220FFF76AFB94
:1030100000E000BF00BF00200949088010BD00008B
:103020006B00002090000020202020202020202065
:10303000202020202020202000000000B26900086D
:103040007600002010B51D480078032805DA1B48DB
:103050000078401C1949087002E0002017490870E8
:103060001749164A127851F8220080471348007811
:1030700030B101280FD0022811D0032817D112E057
:1030800010A20121042000F027FE134A052104208C
:1030900000F022FE0CE00220FFF724FC08E00220F2
:1030A000FFF782FB04E00220FFF71CFB00E000BFFB
:1030B00000BF00200949088010BD00006B000020FF
:1030C00090000020202020202020202020202020D0
:1030D0002020202000000000B269000876000020B7
:1030E00010B51348007830B101280FD0022811D054
:1030F000032817D112E00FA20121042000F0ECFDFB
:10310000114A0521042000F0E7FD0CE00020FFF744
:10311000E9FB08E00020FFF747FB04E00020FFF791
:10312000E1FA00E000BF00BF00200849088010BDA0
:103130006B00002020202020202020202020202084
:103140002020202000000000B26900087600002046
:1031500010B50E480078012814D100200B490870E2
:103160000B4908700B4908800BA20121032000F0D5
:10317000B3FD09A20121042000F0AEFD0120FFF7FC
:1031800045F900E000BF00BF10BD00006A0000204C
:103190007500002076000020202020202020202004
:1031A00020202020202020200000000010B5202119
:1031B0002348FEF7E1FCA8B9012000F0CDFF14225E
:1031C0000721042000F0FAFC15220921042000F058
:1031D000F5FCC820FEF717F81AA20721042000F01A
:1031E0007BFD28E013220721042000F0E7FC0D22DC
:1031F0000921042000F0E2FCC820FEF704F811A227
:103200000721042000F068FD002000F0A5FF0F4812
:10321000008809280FDD4FF4FA7001F033F84FF4FD
:10322000AF7001F00FF80948008801F0D1F80848A4
:10323000008801F007F800200649086010BD000072
:10324000000C01402020202000000000620000202F
:10325000640000207C00002010B50E480078012892
:1032600014D100200B4908700B4908700B490880E5
:103270000BA20121032000F02FFD09A2012104204F
:1032800000F02AFD0120FFF7C1F800E000BF00BFF9
:1032900010BD00006A0000207500002076000020AC
:1032A000202020202020202020202020202020201E
:1032B0000000000010B509480078022803D1002062
:1032C0000649087004E005480078401C034908706E
:1032D00001F076FB00200249088010BD6900002043
:1032E0007600002010B50948007818B90220074977
:1032F000087004E005480078401E0449087001F099
:103300005FFB00200249088010BD0000690000201A
:103310007600002010B500200C490870012000F054
:10332000B7FA0BA20121084600F0D6FC09A2092138
:10333000012000F0D1FC08A20121022000F0CCFC09
:10334000012006490870FFF761F810BD74000020E5
:10335000493A0000503A0000553A00007800002039
:1033600010B509A20121032000F0B6FC06A201213C
:10337000042000F0B1FC00200849087008490870DA
:103380000120FFF743F810BD20202020202020201E
:103390002020202020202020000000006B000020A2
:1033A0007500002010B52AA20121032000F094FC32
:1033B00027A20121042000F08FFC2A482A4909781D
:1033C00030F821002949088026482749097800EB70
:1033D0008100408826490880012000F0BDFE4FF49E
:1033E0009670FDF710FF002000F0B6FE002000F000
:1033F000B3FE1E480088092810DD4FF4FA7000F073
:1034000041FF4FF4AF7000F01DFF1848008800F036
:10341000DFFF1748008800F015FF03E0134800881D
:1034200000F030FF1248008800F00CFF0F480088C1
:1034300001F016F90E48008801F006F90A20FDF7A0
:10344000E2FE00200B4908700120FEF7DFFF10BDEF
:10345000202020202020202020202020202020206C
:1034600000000000820000206900002062000020AF
:10347000640000207500002010B500200749087086
:1034800007A20121032000F027FC05A2012104204E
:1034900000F022FC0120FEF7B9FF10BD75000020EE
:1034A000202020202020202020202020202020201C
:1034B0000000000010B508A20121032000F00CFC60
:1034C00005A20121042000F007FC00200749087034
:1034D0000120FEF79BFF10BD20202020202020206F
:1034E0002020202020202020000000007500002047
:1034F00010B5002012490870012000F0C9F901221E
:103500002021104600F0C6FA4FF4FA70FDF77BFE5A
:1035100000F0A9F90BA20121084600F0DDFB0AA288
:103520000921012000F0D8FB08A20121022000F0AF
:10353000D3FB012006490870FEF768FF10BD0000AC
:1035400074000020493A0000503A0000553A00004B
:103550007800002000B5012002490870FEF756FFF0
:1035600000BD00007800002010B51A480078A8B906
:10357000194800780E2811D017480078401C1649C9
:103580000870084600780C2803D108460078401CD3
:10359000087001F055FB01F0E1FB17E00D480078E1
:1035A000A0B10E4800780E2810D00C480078401CBE
:1035B0000A490870084600780C2803D108460078AC
:1035C000401C087001F03CFB01F088FB002004491E
:1035D000088010BD66000020670000206800002001
:1035E0007600002010B50D480078022812D1002086
:1035F0000A4908700A4908700A49086002200A4905
:10360000087000F030F9002000F042F90620FEF7C3
:10361000FDFE00E000BF00BF10BD00006A000020FA
:10362000780000207C0000207400002010B50848BD
:103630000078012809D10020064908700649088051
:1036400003490870FFF736FF00E000BF00BF10BD60
:103650006A000020750000207600002010B50024CC
:103660007A480078002847D1794800780A280DD197
:103670007848008840F2B541884207DB75480088E9
:10368000A0F57A7073490880012465E070480078DD
:103690000B2811D16F480088B0F5987F0CDD6D487C
:1036A000008864386B4908800846008840F2DC5185
:1036B000884251DD01244FE0654800780D2809D18A
:1036C00064480088D72805DB624800880A386149C9
:1036D000088041E05E4800780E2809D15D480088E6
:1036E000CE2805DB5B480088401E5A49088033E03D
:1036F000CD20584908802FE05448007840B3564800
:1037000000780B2809D155480088642805DB534808
:1037100000886438514908801EE04F4800780D2821
:1037200009D14E4800880A2805DB4C4800880A3831
:103730004A49088010E0484800780E2809D14748D7
:103740000088012805DB45480088401E4349088061
:1037500002E000204149088004B300F00DFDE8B903
:10376000012000F0F9FC4FF49670FDF74CFD0020AD
:1037700000F0F2FC37490988A1F57A7188B200F0AF
:1037800081FD4FF4AF7000F05DFD3248008800F01D
:103790001FFE3248008800F055FD03E02D480088E8
:1037A00000F070FD2D48008800F04CFD8CB307221E
:1037B0000121032000F002FA08220321084600F04C
:1037C000FDF911220521032000F0F8F9122207214A
:1037D000032000F0F3F93A220921032000F0B4F9A4
:1037E00005220121042000F0E9F90622032104202A
:1037F00000F0E4F910220521042000F0DFF9122284
:103800000721042000F0DAF93A220921042000F00F
:103810009BF901F015FA0D48007810B901F09EFAF5
:1038200004E00A48007808B101F058FA0948008815
:1038300000F016FF0948008800F006FF0A20FDF797
:10384000E2FC00200649088010BD00006600002050
:103850006700002062000020680000206400002053
:1038600076000020704770B500240EE0002120464D
:1038700000F0FEF8002504E0002000F0BFFA681C0C
:10388000C5B2802DF8DB601CC4B2082CEEDB70BD25
:1038900010B5044624B10121880500F087FB04E03F
:1038A00000214FF4800000F081FB10BD00B585B011
:1038B0000121082000F08AFB0121880500F076FB39
:1038C0004FF48060ADF810001C208DF81300032029
:1038D0008DF8120004A91448FEF7BAF84FF40060FE
:1038E000ADF8100004A91048FEF7B2F84FF480605C
:1038F000ADF80A000001ADF80C000C4800904FF440
:103900008040ADF806000020ADF804007F20ADF83F
:10391000080069460648FEF7F9FB01210448FEF756
:103920006EF905B000BD0000000C0140801A0600D1
:10393000005800402DE9F0410127002688E00024CE
:1039400008E0002501E0681C85B2B5F57A7FFADB56
:10395000601C84B2B4F57A7FF3DBFFF7A7FFAE20DB
:1039600000F0CEF900B90027D52000F0C9F900B960
:103970000027802000F0C4F900B90027A82000F03B
:10398000BFF900B900273F2000F0BAF900B90027BD
:10399000D32000F0B5F900B90027002000F0B0F9FD
:1039A00000B90027402000F0ABF900B90027A020A3
:1039B00000F0A6F900B90027C02000F0A1F900B975
:1039C0000027DA2000F09CF900B90027122000F04F
:1039D00097F900B90027812000F092F900B900277B
:1039E000CF2000F08DF900B90027D92000F088F928
:1039F00000B90027F12000F083F900B90027DB208F
:103A000000F07EF900B90027302000F079F900B904
:103A10000027A42000F074F900B90027A62000F0C8
:103A20006FF900B900278D2000F06AF900B900276E
:103A3000142000F065F900B90027AF2000F060F90C
:103A400000B90027FFF70FFF07B104E0701C86B232
:103A5000052EFFF674AF00BFBDE8F08110B5024639
:103A6000012000E050430B1EA1F10101FAD110BD6D
:103A700070B505460C4645F0B00000F041F9102144
:103A800041EA141000F03CF904F00F0000F038F99E
:103A900070BD00002DE9F04106460F469046002417
:103AA00016E07A1ED1B2721E2244D0B2FFF7E0FFB8
:103AB000002509E0084901EB482105EB8412885CE8
:103AC00000F09CF9681CC5B2402DF3DB601CC4B249
:103AD000082CE6DBBDE8F0816C6500082DE9F041BB
:103AE00005460E461746721ED206110E6A1E520673
:103AF000100EFFF7BDFF002407E0124901EB07118C
:103B0000085D00F07BF9601CC4B2082CF5DB721E66
:103B1000D206110E6A1E012303EB4202D0B2FFF758
:103B2000A7FF002409E0074901EB071204F108018F
:103B3000505C00F063F9601CC4B2082CF3DBBDE8F4
:103B4000F08100006C6900082DE9F04105460E4641
:103B50001746721ED206110E6A1E5206100EFFF78D
:103B600087FF002409E0A7F12001134A02EB0111AD
:103B7000085D00F043F9601CC4B2082CF3DB721E30
:103B8000D206110E6A1E012303EB4202D0B2FFF7E8
:103B90006FFF00240BE0A7F12001074A02EB01129E
:103BA00004F10801505C00F029F9601CC4B2082C33
:103BB000F1DBBDE8F08100009C5A00082DE9F041DE
:103BC00005460E461746721ED206110E6A1E520692
:103BD000100EFFF74DFF002407E0124901EB4711DB
:103BE000085D00F00BF9601CC4B2102CF5DB721EEE
:103BF000D206110E6A1E012303EB4202D0B2FFF778
:103C000037FF002409E0074901EB471204F11001D6
:103C1000505C00F0F3F8601CC4B2102CF3DBBDE87C
:103C2000F08100002C6100082DE9F04780460E4627
:103C300017461D46002415E0281B411E0A20FFF7E9
:103C40000DFFB7FBF0F00A21B0FBF1F201FB12000F
:103C500000F130093019C1B24A464046FFF774FFFF
:103C6000601CC4B2AC42E7DBBDE8F0872DE9F0414F
:103C700005460E461746721ED206110E6A1E5206E1
:103C8000100EFFF7F5FE002407E0124901EB0711C3
:103C9000085D00F0B3F8601CC4B2082CF5DB721E9E
:103CA000D206110E6A1E012303EB4202D0B2FFF7C7
:103CB000DFFE002409E0074901EB071204F10801C7
:103CC000505C00F09BF8601CC4B2082CF3DBBDE82C
:103CD000F08100008C6000082DE9F04107460E4697
:103CE0001546002407E02A5D3019C1B23846FFF7B7
:103CF0002BFF601CC4B2285D0028F4D1BDE8F08120
:103D000010B5044601213948FEF7CAF94FF4805036
:103D1000374908600AE036490868411E344A116094
:103D200020B90520FEF7A2FAC0B210BD31492F48D4
:103D3000FDF74AFF0028EED0002278212B48FEF73D
:103D40006AFA4FF480502A4908600AE02849086856
:103D5000411E274A116020B90620FEF787FAC0B23B
:103D6000E3E725492148FDF72FFF0028EED0002189
:103D70001E48FEF759FA4FF480501D4908600AE0CA
:103D80001B490868411E1A4A116020B90820FEF735
:103D90006DFAC0B2C9E71849891E1448FDF714FF2F
:103DA0000028EDD021461148FEF73EFA4FF480502E
:103DB0000F4908600AE00E490868411E0C4A11606C
:103DC00020B95220FEF752FAC0B2AEE70A49891C68
:103DD0000648FDF7F9FE0028EDD001210348FEF763
:103DE0006BF90520FDF71FFA01209EE700580040FF
:103DF00018000020010003008200070010B50446EF
:103E000001213948FEF74CF94FF4805037490860DA
:103E10000AE036490868411E344A116020B905207D
:103E2000FEF724FAC0B210BD31492F48FDF7CCFE91
:103E30000028EED0002278212B48FEF7ECF94FF451
:103E400080502A4908600AE028490868411E274A2C
:103E5000116020B90620FEF709FAC0B2E3E7254950
:103E60002148FDF7B1FE0028EED040211E48FEF7A4
:103E7000DBF94FF480501D4908600AE01B490868CF
:103E8000411E1A4A116020B90820FEF7EFF9C0B2AE
:103E9000C9E71849891E1448FDF796FE0028EDD0A1
:103EA00021461148FEF7C0F94FF480500F490860D1
:103EB0000AE00E490868411E0C4A116020B95220E0
:103EC000FEF7D4F9C0B2AEE70A49891C0648FDF7EF
:103ED0007BFE0028EDD001210348FEF7EDF8052018
:103EE000FDF7A1F901209EE70058004018000020CE
:103EF0000100030082000700704710B5FEF7F0F9DB
:103F000000F024FDFEF78AFAFEF758FA10BD000013
:103F100010B5FEF7E5F900F019FDFEF77FFAFEF7A0
:103F20004DFAFDF737FEC0B90C480078012808DBD0
:103F3000FDF7C0FBFDF786F9FDF718FB00200749E8
:103F4000087007480088B0F5FA7F04DB01F08EF8AE
:103F500000200349088001F021F810BD1400002062
:103F60003200002010B5FEF7BBF9FEF757FAFEF756
:103F700025FA10BD01460020034A506820F4404055
:103F800008435060704700000010024029B1064A03
:103F900052690243044B5A6104E0034A5269824366
:103FA000014B5A61704700000010024029B1064AD7
:103FB000D2690243044BDA6104E0034AD2698243C6
:103FC000014BDA61704700000010024029B1064A37
:103FD00092690243044B9A6104E0034A9269824366
:103FE000014B9A6170470000001002400348406A8C
:103FF00040F08070014948627047000000100240A4
:1040000030B500210022002400232D4D6D6805F0FD
:104010000C0121B1042905D0082923D105E0294D3F
:10402000056022E0274D05601FE0254D6D6805F411
:104030007012234D6D6805F48034022505EB924221
:104040001CB9214D554305600BE01D4D6D6805F40D
:1040500000351DB11C4D5543056002E0194D554317
:10406000056002E0174D056000BF00BF144D6D688C
:1040700005F0F0010909154D6B5C0568DD404560F0
:104080000F4D6D6805F4E061090A104D6B5C4568E1
:10409000DD4085600A4D6D6805F46051C90A0B4D1D
:1040A0006B5C4568DD40C560054D6D6805F44041B9
:1040B000890B074D6B5CC568B5FBF3F5056130BD39
:1040C0000010024000127A0000093D0000000020AC
:1040D0001000002010B501460022002300204A11E4
:1040E000012A02D1094C236806E0022A02D1074CBA
:1040F000236A01E0054C636A01F01F020124944029
:104100001C400CB1012000E0002010BD0010024056
:1041100008B505480078801CC1B202226846FDF748
:104120007BFDBDF8000008BD8000002008B502221C
:1041300011466846FDF770FDBDF8000008BD00009F
:1041400008B50222034801786846FDF765FDBDF811
:10415000000008BD8000002010B5044624B12021D5
:104160000448FDF714FD03E020210248FDF70DFD92
:1041700010BD0000000C014010B520210348FDF7E0
:10418000FBFC08B1012010BD0020FCE7000C014041
:1041900010B504462CB14FF480510548FDF7F7FCEB
:1041A00004E04FF480510248FDF7EFFC10BD000021
:1041B0000008014010B54FF480510448FDF7DCFCC5
:1041C00008B1012010BD0020FCE7000000080140FC
:1041D00008B501210820FFF7F9FE2020ADF8000006
:1041E00010208DF8030003208DF8020069460F4867
:1041F000FDF72EFC20210D48FDF7C9FC012104200C
:10420000FFF7E4FE4FF48050ADF8000010208DF869
:10421000030003208DF8020069460548FDF718FCED
:104220004FF480510248FDF7B0FC08BD000C01407E
:104230000008014010B5FFF7CBFFFCF707FDFCF7C6
:104240001BFD10BD2DE9F041044600252046FCF77A
:10425000C2F980460849FBF7EFFF07460749FBF71D
:10426000B9FF0646FCF7C9F985B22946044801F0B2
:10427000D8F8BDE8F081000000C049440000614565
:10428000002C01402DE9FC5F82464FF0000B00201E
:104290000190BAF57A7F4BDCFFF78CFF012812D131
:1042A000FFF76AFF78B90120FFF756FF4FF49670C9
:1042B000FCF7A9FF0020FFF74FFF0020FFF768FF82
:1042C0000A20FCF7A0FF5046FCF78AF90446364A5C
:1042D000364BFCF7D3F904D20021354801F09FF8A2
:1042E0005FE05046FCF77CF906462F4A2F4BFCF75F
:1042F00082F80446FCF795F980B201900198FCF72A
:104300006AF90090FCF7A6F980462A4A2A4BFCF786
:10431000EAF806460022294BFCF773F80446FCF73E
:1043200080F91FFA80FB5946214801F078F838E0FF
:104330005046FCF755F90646214A224BFCF75BF83C
:104340000446FCF76EF980B201900198FCF743F93E
:104350000090FCF77FF980461B4A1C4BFCF7C3F822
:1043600006460022154BFCF74CF80446FCF759F9B9
:104370001FFA80FB59460E4801F051F8FFF71AFF6B
:1043800078B9FFF7F9FE60B90120FFF7E5FE4FF4B9
:104390009670FCF738FF0020FFF7DEFE0120FFF7E4
:1043A000F7FEBDE8FC9F00000BD7A3703D2A6540D7
:1043B000002C0140E17A14AE478D8A400020AC40C9
:1043C000C74B378941E8814079E926310877A64013
:1043D0002DE9F04F89B005464FF0000900264FF453
:1043E00080515048FDF7BFFB18B34F4800F059FF0C
:1043F0000090FCF7F0F84D490190FBF71DFF834654
:10440000FCF728F94A4A4B4BCDE90201FBF7F9FFCB
:104410000746494A494BFBF74DFF0022484BCDE97F
:104420000401FBF7EEFFCDE90601FCF7FAF884B2D0
:1044300022E03D4800F035FF0090FCF7CCF88346C1
:104440003A49FBF7F9FE0190FCF704F90746384AB0
:10445000384BFBF7D6FF384A384BCDE90201FBF762
:1044600029FF0022374BCDE90401FBF7CAFFCDE954
:104470000601FCF7D6F884B2A5424CDD281B642166
:1044800090FBF1F000EB800080B281460646281BCD
:104490001FFA80FA34E0A6EB090188B2314600F039
:1044A00035FBFDF71DFF3046FCF795F80490A6EBB1
:1044B0000900FCF787F803900499FBF7BDFE06900E
:1044C0005046FCF788F805900699FBF783FE834673
:1044D0002046FCF780F859460790FBF723FE8046FC
:1044E000FCF78BF887B23846FFF7CCFE42F6E06067
:1044F000089000BF0898411E89B208910028F9D1A0
:10450000B9F10000A9F101011FFA81F9C3D12846D0
:10451000FFF7B8FE02E02846FFF7B4FE09B0BDE899
:10452000F08F000000080140002C014000006145B0
:104530000E2DB29DEFA7EA3F736891ED7C3FC53F1A
:1045400000F8AA4000E08F401CB501210846FFF7A3
:104550003DFD04210020FDF75BFA102000900120B2
:104560008DF8060000208DF804000C208DF8050061
:104570006846FDF7BFF91CBD10B500F005F8FFF760
:10458000E3FF00F04BF810BD08B501210820FFF74C
:104590001DFD4FF40040ADF8000004208DF803002D
:1045A00069461048FDF754FA01210420FFF70EFD7B
:1045B0004020ADF8000004208DF8030069460A4849
:1045C000FDF746FA01210420FFF700FD1020ADF8A9
:1045D000000004208DF8030069460348FDF738FA0F
:1045E00008BD0000000C01400008014010B54FF468
:1045F00000410948FDF7B7FA60B900BF4FF4004128
:104600000548FDF7B0FA0028F8D01E20FCF7FBFDA6
:104610000A2010BD0020FCE7000C014008B54FF453
:10462000E060FEF7EBF90A208DF8000000208DF81D
:10463000010002208DF8020001208DF80300684679
:10464000FEF7A4F908BD704701B504480078801C46
:10465000C1B202226846FDF7BDFB08BD8000002004
:1046600001B50222024801786846FDF7B3FB08BD98
:104670008000002038B50020009000240025012291
:1046800000216846FDF7C8FAFDF796F89DF800008E
:10469000CD281AD0CD200090012200216846FDF7D8
:1046A00099FB4FF4FA70FFF7DBFF3220FFF7CCFFE6
:1046B0003220FFF7C7FD4FF4FA70FFF7E3FD322118
:1046C0004FF4FA7000F0F8FF34E09DF80000CD28B8
:1046D00030D1FFF735FD0446FFF71AFD05462946A0
:1046E000204600F02BF8054640F6E440844215DCF5
:1046F000B5F5167F12DC1048007820B940F6C410DA
:10470000844200DD04462946204600F0D5FF2846B5
:10471000FFF798FD2046FFF7B5FD0BE032214FF47F
:10472000FA7000F0C9FF3220FFF78CFD4FF4FA70E9
:10473000FFF7A8FD38BD00003600002070B5044624
:104740000D4620480068FBF758FFC0B2092806D084
:104750000C280ED00F2816D014282ED11DE004FBF3
:1047600005F01949884203DD084690FBF4F085B254
:1047700024E004FB05F01449884203DD084690FB61
:10478000F4F085B21AE004FB05F01049884203DD1D
:10479000084690FBF4F085B210E004FB05F00C49EC
:1047A00009680C4A1144884206D909480068114634
:1047B0000844B0FBF4F085B200E000BF00BF28461B
:1047C00070BD00005800002020BF0200E86E03000A
:1047D0007000002010EB090010B500F001F810BDCA
:1047E0000CB50020019000903348006840F4803000
:1047F0003149086000BF3048006800F40030009084
:104800000198401C0190009818B90198B0F5A06F6C
:10481000F1D12948006800F4003010B10120009067
:1048200001E0002000900098012843D1234800684F
:1048300040F01000214908600846006820F003009D
:1048400008600846006840F0020008601A484068A6
:10485000194948600846406848600846406840F486
:10486000806048600846406820F47C104860084634
:10487000406840F4E81048600846006840F08070E6
:10488000086000BF0C48006800F000700028F9D0F4
:104890000948406820F0030007494860084640681E
:1048A00040F00200486000BF0348406800F00C0080
:1048B0000828F9D10CBD0000001002400020024081
:1048C000012803D10449054A116003E010B9002111
:1048D000024A116070470000305705007000002048
:1048E000042802D00021044A117004490978884242
:1048F00001DA0249087070473100002038000020BA
:1049000010B50446012C04D14FF448700D490880BD
:1049100017E0B4B900200B4908800B48008840F626
:10492000C41188420DDD0846074908800846008802
:10493000FFF7A8FC04480088FFF792FE0A20FCF766
:1049400062FC10BD6C0000206200002010B5002445
:10495000FCF71AF8B0F57A6F1DDDFCF715F8B0F525
:104960007A6F18DDFDF716F9022802D10120FEF753
:104970008FFF04E0601CC4B20120FCF744FCFCF78C
:1049800061FC08B9142CF5DB0748008806280ADD0D
:1049900000BF00F00BF8FDF7FDF8022802D100205F
:1049A000FEF776FF002410BD2800002000F0D2FAA8
:1049B0000120FFF7D1FB01E0FDF792FCFCE70000CE
:1049C00010B5112201210320FFF7F8F81A22032164
:1049D0000846FFF7F3F84AA205210320FFF77CF908
:1049E00048484949097830F82100B0F57A7F2ADB38
:1049F00044484549097830F82100642190FBF1F4DE
:104A00000223224607210320FFF70EF92E22092157
:104A10000320FFF799F83B483B49097830F821001B
:104A2000642190FBF1F201FB12000A2190FBF1F4EA
:104A3000012322460320FFF7F7F856220B2103201B
:104A4000FFF782F82EE0202207210320FFF77CF8F1
:104A50002C482D49097830F82100642190FBF1F4AD
:104A60000123224608210320FFF7DEF82E22092128
:104A70000320FFF769F823482349097830F821001B
:104A8000642190FBF1F201FB12000A2190FBF1F48A
:104A9000012322460320FFF7C7F856220B210320EB
:104AA000FFF752F817481849097800EB8100408851
:104AB000642190FBF1F4012322460D210320FFF72E
:104AC000B3F82E220E210320FFF73EF80D480E49C1
:104AD000097800EB81004088642190FBF1F201FB32
:104AE00012000A2190FBF1F4012322460F2103203A
:104AF000FFF79AF8412210210320FFF725F810BD97
:104B00003A20000082000020690000202DE9F047D3
:104B100006460D462846FBF75EFD81463046FBF70C
:104B20005AFD82464946FBF787FB80463A49FBF728
:104B300051FB0746FBF761FDC4B2002C52D1374848
:104B4000007800284ED101203449087034A2012198
:104B50000320FFF7C1F832A201210420FFF7BCF8BF
:104B600034A203210846FFF7B7F8002203210420EE
:104B7000FEF7B4FF022204210846FEF7AFFF02222F
:104B800005210420FEF7AAFF022206210420FEF7D9
:104B9000A5FF022207210420FEF7A0FF0222082120
:104BA0000420FEF79BFF022209210420FEF796FF56
:104BB00002220A210420FEF791FF02220B21042089
:104BC000FEF78CFF02220C210420FEF787FF022251
:104BD0000D210420FEF782FF01220E210420FEF7A2
:104BE0007DFF07E0002C05DDE01CC1B2032204209C
:104BF000FEF774FF0A2C0CD100200849087008A2A7
:104C000001210320FFF768F805A201210420FFF726
:104C100063F8BDE8F0870000000020415C00002040
:104C20002020202020202020202020202020202084
:104C3000000000006C6F6164696E672E2E2E00000C
:104C400010B522A20A210320FFF746F81FA20A216D
:104C50000420FFF741F81F480088642190FBF1F41D
:104C6000022322460A210320FEF7DEFF2E220C211A
:104C70000320FEF769FF17480088642190FBF1F2DA
:104C800001FB1204022322460D210320FEF7CCFF74
:104C900011480088642190FBF1F4012322460B2186
:104CA0000420FEF7C1FF2E220C210420FEF74CFF4A
:104CB00009480088642190FBF1F201FB12040223F1
:104CC00022460D210420FEF7AFFF10BD202020203A
:104CD00020202000620000206400002010B51D4844
:104CE00000780B280CD11C480088642190FBF1F05F
:104CF000C4B22246174801780420FEF7B7FF27E028
:104D0000144800780D2811D113480088642190FBC5
:104D1000F1F201FB12000A2190FBF1F0C4B222462D
:104D20000C4801780420FEF7A1FF11E00948007843
:104D30000E280DD1084800880A2190FBF1F201FBF2
:104D40001200C4B22246034801780420FEF78EFF09
:104D500010BD0000680000206400002010B5294844
:104D600000780A280DD1284800884FF47A7190FB0A
:104D7000F1F0C4B22246234801780320FEF776FF03
:104D80003EE0204800780B2812D11F4800884FF4DD
:104D90007A7190FBF1F201FB1200642190FBF1F0BB
:104DA000C4B22246174801780320FEF75FFF27E0D0
:104DB000144800780D2811D113480088642190FB15
:104DC000F1F201FB12000A2190FBF1F0C4B222467D
:104DD0000C4801780320FEF749FF11E009480078EC
:104DE0000E280DD1084800880A2190FBF1F201FB42
:104DF0001200C4B22246034801780320FEF736FFB2
:104E000010BD0000670000206200002010B50446BD
:104E1000354801682046FBF765FC63D032480460E2
:104E200032492046FBF75EFC14D1032204210846D8
:104E3000FEF7C4FE042206211046FEF7BFFE17222D
:104E400008210420FEF7BAFE18220A210420FEF7EA
:104E5000B5FE47E026492046FBF744FC0AD125A2CF
:104E600002210320FEF738FF26A204210846FEF7A0
:104E700033FF37E027492046FBF734FC0AD11DA257
:104E800002210320FEF728FF1EA204210846FEF798
:104E900023FF27E020492046FBF724FC0AD115A276
:104EA00002210320FEF718FF1CA204210846FEF78A
:104EB00013FF17E01D492046FBF714FC12D10DA289
:104EC00002210320FEF708FF1948007828B919A22B
:104ED00004210846FEF700FF04E01AA20421084658
:104EE000FEF7FAFE10BD00003C0000200000A040CC
:104EF00000001041202020202020202020202020E1
:104F000000000000204D41583A2031385720202021
:104F1000200000000000404100007041204D415839
:104F20003A2032322E355720200000000000A041E8
:104F300037000020204D41583A2036355720202098
:104F400020000000204D41583A20313030572020B9
:104F50002000000010B5FEF786FC09220321022084
:104F6000FEF72CFE0A2205210220FEF727FE0AA2E8
:104F700007210220FEF7B0FE0B2209210220FEF7D6
:104F80001DFE16220B210220FEF718FE05220D2120
:104F90000220FEF713FE10BD2C20000010B52248A1
:104FA0000078642802DD0420204908702048007839
:104FB0001E2838DB1D480078042805D11DA20921D0
:104FC0000220FEF789FE2BE01D48007840B100204A
:104FD0001B4908701BA209210220FEF77DFE1FE07D
:104FE00001201749087011480078012804D00228D0
:104FF00008D0032812D10BE015A209210220FEF7E8
:105000006BFE0CE015A209210220FEF765FE06E00A
:1050100014A209210220FEF75FFE00E000BF00BFDE
:1050200000200349087010BD310000203800002026
:10503000300000204E6F726D616C20200000000077
:105040003900002020202020202020200000000007
:1050500041626E6F726D616C000000004F76657288
:1050600072756E004D41583A2036410010B508A2C5
:1050700001210846FEF730FE06A209210120FEF7B5
:105080002BFE05A201210220FEF726FE10BD000026
:10509000493A0000503A0000553A000010B5134854
:1050A000007810BBFDF720F990B111A20721022072
:1050B000FEF712FE10A207210220FEF70DFE962039
:1050C000FCF7A1F80AA207210220FEF705FE0CE07A
:1050D000002220210120FEF7DDFCFDF701F94FF44D
:1050E000FA70FCF790F8FDF7FBF810BD35000020D2
:1050F0002020202000000000495744470000000005
:105100007047000010B51348006840F001001149D5
:10511000086008464068104908400E494860084643
:1051200000680E4908400B4908600846006820F4F2
:10513000802008600846406820F4FE0048604FF474
:105140001F008860FFF748FB4FF0006004490860CB
:1051500010BD0000001002400000FFF8FFFFF6FE47
:1051600008ED00E010B501212B4800F09DF8002863
:1051700050D02A480078FF2804DA28480078401CDC
:105180002649087026480078FF2804DA2448007869
:10519000401C2349087023480078FF2804DA21487E
:1051A0000078401C1F4908701F480078FF2804DA67
:1051B0001D480078401C1C4908701C4800884FF6A8
:1051C000FF71884204DA19480088401C174908809A
:1051D0001748007801280AD1164800680021401CB1
:1051E000894104DA13480068401C124908601248DB
:1051F000007801280AD1114800884FF6FF718842D3
:1052000004DA0E480088401C0C490880012102483D
:1052100000F029F810BD0000000800403000002018
:1052200014000020310000205D000020320000202A
:10523000780000207C00002075000020760000200F
:105240000A884B881A438B881A43CB881A430B89E8
:105250001A434B891A438B891A43A0F8442070479C
:10526000CA4302827047CA430282704721B1028852
:1052700042F00102028004E002884FF6FE731A40F9
:105280000280704731B1B0F8442042F40042A0F8E7
:10529000442005E0B0F84420C2F30E02A0F84420F8
:1052A00070470146888E704730B5024600200023C3
:1052B0000024158A05EA0103958905EA010413B162
:1052C0000CB1012000E0002030BD1AB183890B43EE
:1052D000838102E083898B438381704770B500240A
:1052E00000220023058C4FF6FE7635400584028CA3
:1052F0008388048B4FF68F752C40B51E2C400D888B
:105300002C43751E2A400D892A434D882A43144D8B
:10531000A8420BD0134DA84208D0134DA84205D087
:10532000124DA84202D0124DA84213D14FF6F77584
:105330002A404D892A434FF6FB752A408D882A431F
:105340004FF6FF652B404FF6FF552B408D892B43C1
:10535000CD892B4383800483CD888586028470BDEC
:10536000002C014000340140004001400044014055
:10537000004801400A460021018B4FF6F77319409F
:10538000114301837047000070B500220023002400
:10539000058C4EF6FF7635400584038C8488828B1D
:1053A00048F6FF752A404FF6FF452A400D884FF614
:1053B000FF7606EA05252A434DF6FF752B400D8939
:1053C00006EA05352B434D8806EA05352B430B4D80
:1053D000A84202D00A4DA84208D14BF6FF752C40D6
:1053E0008D894FF6FF7606EA85152C4384808283EB
:1053F000CD88A0F84050038470BD0000002C01400F
:10540000003401400A460021818B4FF2FF7319409E
:105410004FF6FF7303EA02231943818370478186A5
:105420007047A0F840107047002202881D4B984238
:105430000ED01D4B98420BD0B0F1804F08D01B4BC3
:10544000984205D01A4B984202D01A4B984204D188
:105450004FF68F731A404B881A43174B984207D068
:10546000164B984204D04FF6FF431A40CB881A439C
:1054700002808B8883850B8803850A4B98420BD06A
:10548000094B984208D00E4B984205D00D4B9842DC
:1054900002D00D4B984201D10B7A038601238382FF
:1054A00070470000002C014000340140000400401F
:1054B00000080040000C00400010004000140040B4
:1054C00000400140004401400048014021B1828970
:1054D00042F40052828104E082894DF6FF731A4043
:1054E0008281704700B585B001210420FEF76EFD72
:1054F00001218803FEF76AFD4FF40070ADF800004B
:1055000018208DF8030003208DF802006946174823
:10551000FCF79EFA4FF48060ADF8000004208DF88F
:10552000030069461148FCF793FA4FF4E13001900B
:105530000020ADF810000C20ADF80E000020ADF8F2
:105540000C00ADF80A00ADF8080001A9084800F009
:1055500043F8002240F22551054800F018F80121D7
:105560000348FFF7B3FF05B000BD0000000801408D
:105570000038014002460020B1F5007F00D100BF95
:1055800013880B400BB1012000E000207047F0B5FC
:105590000346002400260025002040F66A17B94281
:1055A00000D100BF1846C1F3421401F01F060127C5
:1055B00007FA06F5012C01D10C3004E0022C01D1D0
:1055C000103000E014301AB107682F43076002E082
:1055D0000768AF430760F0BD2DE9F04786B0054688
:1055E0000E460024A24600BFA1460027B08900B1A4
:1055F00000BF2F462C8A4CF6FF700440F08804430D
:105600002C82AC894EF6F3100440B08831890843EF
:10561000718908430443AC81AC8A4FF6FF400440D3
:10562000B0890443AC8201A8FEF7EAFC1F48874218
:1056300002D1DDF810A001E0DDF80CA0A88900F48B
:10564000004040B10AEBCA0000EB0A103168490083
:10565000B0FBF1F807E00AEBCA0000EB0A10316872
:105660008900B0FBF1F86420B8FBF0F004012009D8
:10567000642101FB1089A88900F4004040B1322068
:1056800000EBC900B0FBF1F000F00700044308E0B4
:10569000322000EB09106421B0FBF1F000F00F00A4
:1056A00004432C8106B0BDE8F087000000380140BB
:1056B000C1F3080282807047024A1080024A1180BA
:1056C00070470000620000206400002000BFFEE779
:1056D00070B50446FBF752F91D491E4A127821F8AD
:1056E00012001C480078401C1A49087008460078CF
:1056F00014282BD11421164800F037F90020154941
:1057000008700FE0124913480078401D31F810006E
:10571000114909680844104908600E480078401C87
:105720000C4908700B4800780A28EBDB0A4800682F
:105730000A21B0FBF1F52846FAF74DFF2060002062
:105740000449087004490860012070BD0020FCE78E
:1057500080010020480000204C00002001B50222FA
:1057600011466846FCF736FB0A20FBF74CFD08BDE6
:105770000FB4054B10B503A9044A029800F018F8BD
:1057800010BC5DF814FB0000C55900087C01002026
:1057900002E008C8121F08C1002AFAD170477047FA
:1057A000002001E001C1121F002AFBD17047000058
:1057B0002DE9FF4F89B09B460446002506E02528C9
:1057C0000BD05A460B999047641C6D1C207800281A
:1057D000F5D10DB02846BDE8F08F0027B84601226C
:1057E000474900E0074314F8013F203B02FA03F069
:1057F0000842F7D120782E2819D114F8010F47F06C
:1058000004072A280ED06FF02F022078A0F1300173
:1058100009290CD808EB880102EB410100EB0108D3
:10582000641CF2E70A98641C50F8048B0A902078F4
:105830000028CED0642808D0692806D075281ED04C
:105840005A460B9990476D1C58E00A994FF00A0987
:1058500001C90A91002802DA40422D2102E03905EF
:1058600004D52B218DF82010012103E0F90704D085
:105870002021F7E78A4608AE0DE00021FAE70A99F1
:105880004FF00A0901C90A91F7E74946FAF73EFFC6
:10589000303106F8011D0028F7D1ADEB060000F10C
:1058A0002009780701D44FF00108C84502DDA8EBB4
:1058B000090000E000208046002706E008A85A46BC
:1058C000C05D0B9990476D1C7F1C5745F6DB04E0CB
:1058D00030205A460B9990476D1CB8F10001A8F191
:1058E0000108F5DC05E016F8010B5A460B999047C4
:1058F0006D1CB9F10001A9F10109F4DC641C65E734
:10590000092801002DE9F04705460E460027B84654
:105910000024A14600BF22E04FF00108002400BF90
:1059200014E0621C55F8221055F82400FAF7E4FE42
:105930000BD255F82490601C55F8200045F824003F
:10594000601C45F820904FF00008641C701EC01BBE
:10595000A042E6DCB8F1010F00D103E07F1C701E0D
:10596000B842D9DC00BFBDE8F087F0B5024600239D
:1059700000240020002500BF1EE00124002000BFFD
:1059800012E032F81070461C32F81660B7420ADD99
:1059900032F81050461C32F8166022F81060461C8F
:1059A00022F816500024401C4E1EF61A8642E8DCEF
:1059B000012C00D103E05B1C4E1E9E42DDDC00BFCB
:1059C000F0BD000070B504460D46E1B20548FFF792
:1059D0006FFE00BF80210348FFF7CCFD0028F9D0FF
:1059E000204670BD00380140FCF787FCFFF77AFDC8
:1059F00019A0FFF7BDFEFDF79DFFFCF781FAFBF74D
:105A00006BFAFFF74BFBFBF779F8FBF7BDFFFCF7F1
:105A1000C1FCFEF7B1FDFEF70DFCFBF763FCFDF7E3
:105A200022FFFFF723FB19A0FFF7A2FE12E0FCF70D
:105A3000B1F820B1012805D0022809D105E0FEF710
:105A400067FA06E0FEF78EFA03E0FEF756FA00E08A
:105A500000BF00BFEBE700000D0AB9FEE0B6A3AC43
:105A6000BADCBAC3C6E6B6D4C2F0A3BFBFC9CAC7C0
:105A7000CED2BBB9C3BBCFEBBAC3BACDC4E3CBB5AF
:105A8000CAB2C3B42E2E2E0D0A000000B3F5CABC54
:105A9000BBAFCDEAB3C9200D0A0000000000000032
:105AA000000000000000000000000000000000F8FE
:105AB00000000000000000333000000000100C0661
:105AC000100C0600000000000000000040C07840FC
:105AD000C0784000043F04043F040400007088FCC8
