:020000040800F2
:10000000D805002001010008252B0008ED1B000881
:10001000AD250008490D0008815B000800000000C4
:10002000000000000000000000000000C74A0008B7
:10003000391200080000000075420008A1550008B0
:100040001B0100081B0100081B0100081B01000820
:100050001B0100081B0100081B0100081B01000810
:100060001B0100081B010008C51800081B0100083F
:100070001B0100081B0100081B0100081B010008F0
:100080001B0100081B0100081B0100081B010008E0
:100090001B0100081B0100081B0100081B010008D0
:1000A0001B0100081B0100081B0100081B010008C0
:1000B0001B0100081B010008055600081B01000871
:1000C0001B0100081B0100081B0100081B010008A0
:1000D0001B0100081B0100081B0100081B01000890
:1000E0001B0100081B0100081B010008DFF80CD0F1
:1000F00000F0E8FB004800479D5E0008D80500209E
:100100000648804706480047FEE7FEE7FEE7FEE7B1
:10011000FEE7FEE7FEE7FEE7FEE7FEE7A55500087F
:10012000ED000008F0B480EA0102D40F4200B2EB07
:10013000410F02D20246084611464A0042D0C30D82
:10014000DDB2C1F3C752AD1A202D35DAC1F3160165
:1001500041F4000204B15242C5F1200602FA06F150
:100160002A411044B3EBD05F23D0C4B1012DA0EBE2
:10017000C35009DCF0BC4FF0004202EAC352DBB2CC
:1001800000F5000000F012BB400000F1807000EBB1
:10019000C350A0F1807040EAD170490009E04908DD
:1001A00041EAC071A0EBC35000F50000400800EB2D
:1001B000C350F0BC00F0F1BA6142012202EB4101F0
:1001C000001BF6E7F0BC704781F00041AAE780F021
:1001D0000040A7E780EA010210B502F000434000AA
:1001E00022D04A001FD0010E01EB1261C0F356006D
:1001F000C2F3560240F4000042F40002A0FB0220C9
:1002000000047F39140400D0401C50EA124001D48D
:100210004000491EC2B20C0604EBD010401C40083E
:10022000802A02D003E0002010BD20F00100002948
:1002300000DA0020184310BD30B480EA010202F059
:10024000004530F0004221F0004013D090B1C30DC2
:10025000D40DC2F31601C0F31600E41A41F40001F4
:1002600040F400027D34914201D3641C00E0490057
:10027000002C02DA30BC002070474FF4000000234D
:10028000914201D3891A034340084FEA4101F7D153
:1002900051B1914202D14FF0004105E002D24FF03E
:1002A000010101E06FF0010103EBC450284430BCB0
:1002B00000F073BA2DE9FE4F804681EA0300C00FBB
:1002C0000C46009021F0004123F00045B8EB0200FD
:1002D000A94105D24046214690461C460B4602469F
:1002E00023F00040104347D0270DC7F30A00C3F3A3
:1002F0000A510290401A019040286BDAC3F31300B0
:1003000040F4801B0098924620B10023D2EB030AF0
:1003100063EB0B0B01985946C0F14002504600F0C8
:100320000BFA06460D4650465946019A00F023FA4C
:1003300010EB08006141002487EA115284EAE77358
:100340001A4340D0009A62B3019A012A4FEA075239
:1003500015DC001B61EB02014FF0004202EA07527C
:10036000CDE90042001C41F5801132462B4600F0D9
:100370005AFA03B0BDE8F08F40462146F9E7001B6A
:1003800061EB0201001C41F5801300185B4120184D
:10039000A2F5001747EB030140EAD570B6196D418D
:1003A00011E06D084FEA360645EAC0754FEA07527C
:1003B000001B61EB0201001C41F5801149084FEA66
:1003C00030000019514132462B4603B0BDE8F04FD2
:1003D00000F01ABA0098012240000023D0EB02027C
:1003E00063EBE073009821464FEAE074B8EB00003D
:1003F00061EB0401E9E783F000435BE781F0004132
:1004000058E72DE9FE4F81EA030404F0004421F08F
:10041000004100944FF0000B23F0004350EA010428
:100420005ED052EA03045BD0C3F30A54C1F30A5509
:100430002C44A4F2F3340194A0FB0254C1F3130141
:1004400041F48011C3F3130343F4801301FB02440E
:1004500000FB034E840A970A44EA815447EA835713
:10046000A4FB076802958D0A05FB07854FEA932CCC
:1004700004FB0C542705029D4FEA065847EA16373D
:10048000B5EB08056EEB070C870E920E47EA811755
:1004900042EA8312A7FB0201B6EB0B0164EB0004F6
:1004A0002B0D43EA0C335E1844EB1C50DA465146E0
:1004B000E7FB0201C5F313044FEA0B3343EA14537D
:1004C0004FEA0432019C43EA0603A4F10C040294AF
:1004D000009CCDE900B400F0A6F903B0BDE8F08FB0
:1004E00000200146F9E72DE9F04D81EA030404F00C
:1004F000004B21F0004514464FF0000A23F0004164
:1005000050EA050220D054EA01021DD0C5F30A5773
:100510000246C5F31303C1F31300C1F30A5640F4B6
:10052000801543F48013A7EB0608101BD64608F28B
:10053000FD3873EB050002D308F1010801E09218C1
:100540005B41B8F1000F03DA00200146BDE8F08DF1
:1005500000204FF48011064684460EE0171B73EB13
:10056000050705D3121B63EB050306434CEA010C98
:1005700049084FEA300092185B4150EA0107EDD17B
:1005800052EA030012D082EA040083EA050108431C
:1005900005D0101BAB4106D20122002306E0002249
:1005A0004FF0004302E06FF0010253101AEB060017
:1005B0004CEB085110EB0A0041EB0B01BDE8F04D8C
:1005C00000F022B9C10F80EAE0700844CA07962300
:1005D000002100F0EBB896230022114600F0E6B8A7
:1005E0000EB540F2334102910021CDE900110A46D7
:1005F0000B4600F018F903B000BD20F00040C10D1B
:10060000C0F3160040F400007F2901DA0020704793
:10061000962903DCC1F19601C8407047963988409D
:100620007047C1F30A5210B5C1F3130140F2FF3312
:1006300041F480119A4201DA002010BD40F23343A8
:100640009A42A2F2334203DC524200F084F810BD19
:10065000904010BD00F0004230F000400AD0C10DC3
:1006600001F56071C0F3160042EA0151C20840076B
:1006700011437047002001467047000030B5041E4A
:1006800071F1000404DB4FF00044404264EB0101CF
:10069000141E73F1000405DB1C464FF00043524268
:1006A00063EB04038B4208BF824230BD01F000437C
:1006B00030B421F0004150EA010206D00A0DA2F543
:1006C0006072C1F31301002A02DC30BC00207047C5
:1006D000440F44EAC104C100E01830BC00EBC25032
:1006E00000F05BB8002801DBC0F10040002901DB0D
:1006F000C1F1004181427047002801DBC0F1004098
:10070000002901DBC1F100418842704730B50B463A
:10071000014600202022012409E021FA02F59D4231
:1007200005D303FA02F5491B04FA02F52844151E05
:10073000A2F10102F1DC30BD202A04DB203A00FAEC
:1007400002F1002070479140C2F1200320FA03F328
:10075000194390407047202A04DB203A21FA02F026
:100760000021704721FA02F3D040C2F120029140EB
:10077000084319467047202A06DBCB17203A41FA76
:1007800002F043EAE07306E041FA02F3D040C2F11E
:10079000200291400843194670470029A8BF7047BE
:1007A000401C490008BF20F00100704710B4B0FAA7
:1007B00080FC00FA0CF050EA010404BF10BC704742
:1007C00049B1CCF1200421FA04F411FA0CF118BF5C
:1007D000012121430843A3EB0C01CB1D4FEA00612B
:1007E0004FEA102042BF002010BC704700EBC350FE
:1007F00010440029A4BF10BC7047401C490008BF2A
:1008000020F0010010BC704710B5141E73F10004F5
:1008100008DA401C41F1000192185B411A4301D1F2
:1008200020F0010010BD2DE9F04D92469B4611B11C
:10083000B1FA81F202E0B0FA80F220329046FFF77E
:100840007BFF04460F4640EA0A0041EA0B0153468B
:100850005A46084313D0114653EA010019D0C8F193
:1008600040025046FFF777FF05460E465046594670
:100870004246FFF761FF084305D0012004E020460F
:100880003946BDE8F08D0020054346EAE0762C436A
:1008900037430A986305E40AA0EB08000022FD0A2A
:1008A00044EA47540A3002D500200146E9E7010531
:1008B00010196941DDE9084500196941BDE8F04DAD
:1008C000A2E70000064C074D06E0E06840F0010397
:1008D00094E8070098471034AC42F6D3FFF70AFCBF
:1008E000506F0008706F000870B58C1810F8015B2D
:1008F00015F0070301D110F8013B2A1106D110F8B9
:10090000012B03E010F8016B01F8016B5B1EF9D1BC
:100910002B0705D40023521E0DD401F8013BFAE742
:1009200010F8013BCB1A921C03E013F8015B01F8AD
:10093000015B521EF9D5A142D8D3002070BD000042
:100940002DE9F0410A498888FFF745FE8046FFF708
:1009500081FE06464FF06632064BFFF752FD044615
:10096000FFF7A4FE0449086008460068BDE8F0816E
:100970001C00002066664A3F2400002001480088D1
:10098000704700001C0000200148408870470000AC
:100990001C00002021B1826842F00102826003E065
:1009A000826822F001028260704721B1826842F4BD
:1009B0008072826003E0826822F4807282607047F5
:1009C000014600208A6802F004020AB1012000E01A
:1009D0000020704730B502460020002350680F4CBD
:1009E00020400D790C6844EA05242043506090684B
:1009F0000B4C2040D1E902542C434D7944EA450484
:100A000020439060D06A20F470000C7C641EE4B235
:100A1000234340EA0350D06230BD0000FFFEF0FFE8
:100A2000FDF7F1FFF0B504460D4600200021092D29
:100A300011DDE068A5F10A0606EB4607072606FA6F
:100A400007F18843A5F10A0606EB460603FA06F10C
:100A50000843E0600CE0206905EB4507072606FA2D
:100A600007F1884305EB450603FA06F108432061C8
:100A7000072A0FDA606B561E06EB86071F2606FA5A
:100A800007F18843561E06EB860605FA06F1084371
:100A9000606322E00D2A0FDA206BD61F06EB860773
:100AA0001F2606FA07F18843D61F06EB860605FACD
:100AB00006F10843206310E0E06AA2F10D0606EBA0
:100AC00086071F2606FA07F18843A2F10D0606EBFA
:100AD000860605FA06F10843E062F0BD21B182689E
:100AE00042F4A002826003E0826822F4A0028260E5
:100AF0007047816841F004018160704710B500F0D3
:100B000035F800F003F800F059F810BD00B58BB0CF
:100B10000121084603F0F8FB114800F0C9FA11481A
:100B200000901148019000200290032003900020C3
:100B300004908020059040000690800007902020BF
:100B400008900002099000200A906946044800F0CD
:100B500055FB0121024800F09FFA0BB000BD0000D8
:100B6000080002404C2401401C00002008B501216F
:100B7000082003F0E9FB0320ADF8000000208DF809
:100B8000030003208DF8020069460A4800F07AFF4E
:100B90000121042003F0D8FB8020ADF800000020E4
:100BA0008DF8030003208DF802006946024800F02A
:100BB00069FF08BD000C01400008014000B585B088
:100BC0000121480203F0C0FB0020009001208DF8B5
:100BD00004008DF805004FF460200290002003907F
:100BE00003208DF8100069461748FFF7F3FE4FF415
:100BF000404003F07DFB0723012208211248FFF744
:100C000011FF0723022209210F48FFF70BFF0723DB
:100C1000032219460C48FFF705FF01210A48FFF798
:100C2000C4FE01210848FFF7B5FE0748FFF761FF42
:100C300000BF0548FFF7C4FE0028FAD10121024891
:100C4000FFF74CFF05B000BD0024014008B50121AD
:100C5000042003F079FB4FF41060ADF80000182079
:100C60008DF8030003208DF802006946014800F06A
:100C700009FF08BD0008014000B58BB00121C80282
:100C800003F062FB40F60F60ADF824000020ADF8E1
:100C90002000ADF82600ADF822008DF8280008A944
:100CA000284804F01BFE6020ADF810000120ADF8CC
:100CB00012000420ADF814000020ADF81600ADF8C5
:100CC0001800ADF81A004FF48070ADF81C00002039
:100CD000ADF81E0004A91B4804F05AFD082119486C
:100CE00004F0A2FD0020ADF8160004A9154804F098
:100CF000A5FD0821134804F0DFFD0020ADF8000039
:100D0000ADF802004FF48070ADF804000B20ADF890
:100D100006000020ADF808004FF40050ADF80A00BE
:100D20000020ADF80C006946064804F0E3FC012100
:100D3000044804F0F5FC0121024804F0FDFC0BB06E
:100D400000BD0000002C014000BFFEE710B55A486E
:100D50000078002857D159480068FFF74EFCC0B210
:100D60000C281AD004DC052807D0092849D105E051
:100D70000F2821D0142844D12DE043E050480088AA
:100D80005049098848435049884205DD4C4800884D
:100D900091FBF0F04B49088034E04948008849490C
:100DA000098848434849884205DD4548008891FB49
:100DB000F0F04449088025E041480088414909880D
:100DC00048434249884205DD3D48008891FBF0F0E8
:100DD0003C49088016E03A4800883A490988484367
:100DE0003B4909683B4A1144884209D938480068A0
:100DF0001146084432490988B0FBF1F031490880B6
:100E000000E000BF57E02D480068FFF7F6FBC0B2D6
:100E10000C281AD004DC052807D0092849D105E0A0
:100E20000F2821D0142844D12DE043E02448008825
:100E30002449098848432449884205DD214800881F
:100E400091FBF0F01E49088034E01D4800881D49E0
:100E5000098848431C49884205DD1A48008891FBEF
:100E6000F0F01749088025E01548008815490988E1
:100E700048431649884205DD1248008891FBF0F08E
:100E80000F49088016E00E4800880E49098848433B
:100E90000F4909680F4A1144884209D90C48006873
:100EA0001146084407490988B0FBF1F0044908805D
:100EB00000E000BF00BF10BD660000205800002009
:100EC000620000206400002020BF0200E86E0300E2
:100ED0007000002010EB090010B503F0E5FA04469D
:100EE00004F4004018B900202749087007E004F412
:100EF0000040B0F5004F02D101202349087004F4EE
:100F0000804030B9002003F041FF00201F490870E5
:100F10000AE004F48040B0F5804F05D1012003F0D1
:100F200035FF01201949087004F4005030B9002041
:100F300003F006FF0020164908700AE004F4005090
:100F4000B0F5005F05D1012003F0FAFE0120104941
:100F5000087004F4805068B9002003F001FF0120FC
:100F600003F0F2FA4FF4967000F067F9012003F0F5
:100F700007FB07E004F48050B0F5805F02D1012048
:100F800003F0EEFE10BD000035000020360000200A
:100F90003700002000B51648007801280CD115480C
:100FA000008840F2DC51884209DB012012490870B8
:100FB0000D2001F043FA02E000200E4908800F489E
:100FC000007801280FD10E4800680E4988420DD3E1
:100FD0000D480078012809D10220074908700D202A
:100FE00001F02CFA02E000200549086000BD000075
:100FF00075000020760000206A00002078000020A4
:101000007C000020C07A10006100002070B504460A
:10101000FFF7BAFC1D491E4A127821F812001C483D
:101020000078401C1A4908700846007814282BD113
:101030001421164804F0F3FE0020154908700FE053
:10104000124913480078401D31F810001149096811
:101050000844104908600E480078401C0C4908708C
:101060000B4800780A28EBDB0A4800680A21B0FB2D
:10107000F1F52846FFF7AFFA206000200449087018
:1010800004490860012070BD0020FCE7AC0100208D
:10109000500000205400002021B1026842F00102FB
:1010A000026004E002684FF6FE731A400260704767
:1010B00001684FF6FE72114001600021016041603D
:1010C0008160C1604B49884208D14A490839496862
:1010D00041F00F01474A083A51608AE0454914310E
:1010E000884208D143490839496841F0F001414A32
:1010F000083A51607DE03F492831884208D13D4996
:101100000839496841F470613A4A083A516070E020
:1011100038493C31884208D136490839496841F498
:101120007041344A083A516063E032495031884294
:1011300008D130490839496841F470212D4A083AEC
:10114000516056E02B496431884208D12949083959
:10115000496841F47001274A083A516049E025493D
:101160007831884208D123490839496841F07061D3
:10117000204A083A51603CE01F49884206D1011FCD
:10118000096841F00F01021F116032E01A49143161
:10119000884208D11849091F096841F0F001164A30
:1011A000121F116025E014492831884208D11249E4
:1011B000091F096841F470610F4A121F116018E09D
:1011C0000D493C31884208D10B49091F096841F497
:1011D0007041094A121F11600BE0074950318842E3
:1011E00007D10549091F096841F47021024A121FFD
:1011F00011607047080002400804024010B5002248
:10120000026847F6F0739A430C6A8B6823430C69B3
:1012100023434C6923438C692343CC6923434C6AA1
:1012200023438C6A23431A430260CB6843600B68F4
:1012300083604B68C36010BD7047002107E042F631
:10124000E06100BF0A1EA1F1010399B2FAD1021EAA
:10125000A0F1010398B2F2D17047002106E00C2101
:1012600000BF0A1EA1F1010399B2FAD1021EA0F13A
:10127000010398B2F3D170472DE9F843002500240B
:101280006846FFF7C3FE01283CD101254FF083419A
:101290000098FEF79FFF80461C49FEF795FF074622
:1012A0001B49FEF7C9FF0646FFF7A7F984B20A20DB
:1012B00094FBF0F017490880052C00DA00244FF465
:1012C0007A7094FBF0F6012332460321184602F0AF
:1012D00069FE2E220421012002F0F4FD4FF47A7001
:1012E00094FBF0F100FB1146032332460521012057
:1012F00002F058FE07480088B0F5AF7F02DD0320FA
:1013000003F034FD2846BDE8F88300000000D84112
:1013100000002041280000202DE9F047002400258E
:101320000C2602F05EFC0B220221084602F004FEAD
:101330000E220421022002F0FFFD072206210220D6
:1013400002F0FAFD08221146022002F0F5FD7FA20C
:101350000A21022002F07EFE00F0E6FF18B101260D
:1013600000F0BCFF03E07A48007800B108260025B1
:10137000E4E000F0D5FF01F001F807467549FEF7FB
:1013800029FF7549086008460068FFF736F9C4B2BE
:101390004FF0824170480068FFF7A4F913D207228A
:1013A0000221032002F0C8FD08220421032002F0DC
:1013B000C3FD0F220621032002F0BEFD67A2082113
:1013C000032002F047FE634963480068FFF78AF98B
:1013D00025D2012322460C21022002F0E3FD2E2219
:1013E0000D21022002F06EFD2046FFF7F4F8824640
:1013F000594801685046FEF7EAFE81465949FEF712
:10140000E9FE8046FFF7F9F8074602233A460E2127
:10141000184602F0C7FDC820FFF70FFF24E00223A3
:1014200022460B21184602F0BDFD2E220D2102207E
:1014300002F048FD2046FFF7CEF882464648016894
:101440005046FEF7C4FE81464649FEF7C3FE80467D
:10145000FFF7D3F8074602233A460E21184602F05A
:10146000A1FDC820FFF7E9FE4FF081413A4800682E
:10147000FFF742F909D83C4937480068FFF732F9CD
:1014800003D83A483449086052E04FF0824132486C
:101490000068FFF731F909D82E492F480068FFF797
:1014A00021F903D832482C49086041E031492A48E3
:1014B0000068FFF721F909D82F4927480068FFF78E
:1014C00011F903D82D482449086031E02C492248FD
:1014D0000068FFF711F90AD84FF083411E480068F1
:1014E000FFF700F903D827481B49086020E0264988
:1014F00019480068FFF700F909D824491648006820
:10150000FFF7F0F803D822481349086010E01F499C
:1015100011480068FFF7F0F80AD202F062FB1DA242
:101520000421022002F096FD01E000F0F9FEFCE744
:101530000948006803F0B0FE681CC5B2B542FFF66A
:1015400018AF03F0D7FABDE8F08700003A000000BA
:10155000350000200000204158000020203E3D20A2
:10156000395600000000C8420000C0400000A04002
:101570000000104100003041000050410000404197
:101580000000604100007041000098410000B0413F
:101590000000A0414661756C745F566F6C000000DE
:1015A00010B54B4800884B49098848434A490860B0
:1015B0000846006849490968884234D046480068AE
:1015C0004649086044480068454988422CD2424850
:1015D000006842F21071B0FBF1F4012322460B21A6
:1015E000184602F0DFFC2E220C21012002F06AFCDA
:1015F0003948006842F21071B0FBF1F201FB1200B1
:101600006421B0FBF1F4022322460D21012002F0F7
:10161000C9FC20220F21012002F054FC20221021BD
:10162000012002F04FFC51E02B4800682D49884210
:1016300027D22948006842F21071B0FBF1F402236E
:1016400022460B21012002F0ADFC2E220D210120AB
:1016500002F038FC2048006842F21071B0FBF1F251
:1016600001FB12006421B0FBF1F4022322460E219B
:10167000012002F097FC20221021012002F022FC20
:1016800024E01548006842F21071B0FBF1F4032326
:1016900022460B21012002F085FC2E220E21012082
:1016A00002F010FC0C48006842F21071B0FBF1F23D
:1016B00001FB12006421B0FBF1F4022322460F214A
:1016C000012002F06FFC012003F050FB10BD000070
:1016D0002A000020280000202C00002044000020C8
:1016E000A086010040420F00F8B5684604F04AFAAF
:1016F00001286FD138490098FEF76CFD064637493E
:10170000FEF710FD05463649FEF796FD0446FEF746
:1017100074FF3449088008460088B0F57A7F22DAE1
:1017200008460088642190FBF1F40123224603213E
:10173000022002F037FC2E220421022002F0C2FB1C
:1017400028480088642190FBF1F201FB1204022377
:1017500022460521184602F025FC202207210220FE
:1017600002F0B0FB1CE01F480088642190FBF1F4FC
:10177000022322460321184602F014FC2E220521E2
:10178000022002F09FFB17480088642190FBF1F2D1
:1017900001FB1204022322460621184602F002FC35
:1017A00000F01EFA0F490988401A64280FDD02F084
:1017B000DBFE60B90C480078401C0B4908700846F5
:1017C0000078022806DB022003F0D0FA02E00020B5
:1017D00005490870F8BD00000000A2420000444224
:1017E0000000C8422A000020400000200EB5002062
:1017F0000290019000900122114602A800F02CFAFC
:101800009DF80800FF2802D09DF8080040B9042088
:101810002B49087001221146294800F0FBFA4EE0DE
:101820009DF80800FC2824D102229DF8081001A888
:1018300000F012FA9DF80800801CC1B2022268462E
:1018400000F00AFA04201E490870022208460178B6
:1018500001A800F0DFFA1A480078801CC1B2022209
:10186000684600F0D7FA01221146154800F0D2FA76
:1018700025E002229DF8081001A800F0EDF99DF87E
:101880000800801CC1B20222684600F0E5F99DF80C
:101890000800001D0A49087002220846017801A8C4
:1018A00000F0B8FA06480078801CC1B202226846EF
:1018B00000F0B0FA01221146014800F0ABFA0EBD6B
:1018C0008000002010B5102000F01AF858B1402117
:1018D000074800F062F918B1052000F0AFFD02E002
:1018E000062000F0ABFD102000F004F810BD000051
:1018F00000080140014908607047000014040140DD
:10190000014600200022074B1B6803EA0102054B39
:1019100014331B680B4013B10AB1012000E0002012
:101920007047000000040140002123498279002A09
:101930003AD00A46126803689A430B461A600A1D99
:10194000126803689A430B1D1A60027911440A68F1
:1019500003681A430A60184A0832126803689A43F7
:10196000154B08331A601A1D126803689A43124B0C
:101970000C331A604279102A0ED11A1F12680368BC
:101980001A430D4B08331A601A1D126803681A4374
:10199000094B0C331A600DE00749427911440A687B
:1019A00003681A430A6005E0027911440A68036873
:1019B0009A430A60704700000004014010B500F02F
:1019C0002BF800F001F810BD0EB50121042002F043
:1019D000ABFC42F20F70ADF804004720ADF80000F8
:1019E0000020ADF80600ADF802008DF80800694649
:1019F000084803F073FF0121064803F08BFE012223
:101A00001146044803F0BBFE0121024803F088FEA2
:101A10000EBD00000008004008B54FF4E06001F082
:101A2000BBF81E208DF8000000208DF80100032077
:101A30008DF8020001208DF80300684601F074F86B
:101A400008BD000030B500228B071C0F0F2303FADE
:101A500004F20B4B8C1053F824309343084C8D1038
:101A600044F8253023468C1053F824308C07240F7B
:101A700000FA04F42343024C8D1044F8253030BDA5
:101A8000080001402DE9F041024600250026002013
:101A900000230024002791F803C00CF00F0591F8F3
:101AA00003C00CF0100CBCF1000F03D091F802C081
:101AB0004CEA050591F800C0BCF1000F31D0146864
:101AC00000202BE04FF0010C0CFA00F3B1F800C03D
:101AD0000CEA03069E4220D183004FF00F0C0CFA53
:101AE00003F7BC4305FA03FC4CEA040491F803C075
:101AF000BCF1280F06D14FF0010C0CFA00FCC2F823
:101B000014C00AE091F803C0BCF1480F05D14FF0B2
:101B1000010C0CFA00FCC2F810C0401C0828D1D3FC
:101B20001460B1F800C0BCF1FF0F34DD5468002030
:101B30002EE000F1080C4FF0010808FA0CF3B1F8A0
:101B400000C00CEA03069E4221D183004FF00F0C27
:101B50000CFA03F7BC4305FA03FC4CEA040491F8C1
:101B600003C0BCF1280F05D100F1080C08FA0CF8ED
:101B7000C2F8148091F803C0BCF1480F07D100F1FE
:101B8000080C4FF0010808FA0CF8C2F81080401C4D
:101B90000828CED35460BDE8F08102460020936847
:101BA0000B400BB1012000E00020704702460020EE
:101BB000D3680B400BB1012000E000207047416169
:101BC00070470161704700000148007870470000CD
:101BD0007400002001480078704700005C0000207D
:101BE00001480088704700006200002000BFFEE747
:101BF00021B1028842F48062028004E002884FF63C
:101C0000FF331A400280704770B502460024002559
:101C100000230020958A138B1B0445EA030626F057
:101C20007F4404EA01068E4201D1012000E0002039
:101C300070BD002221F07F42D3438382704721B1DF
:101C4000028842F00102028004E002884FF6FE732F
:101C50001A4002807047000070B505460E461446D3
:101C60004FF420406649086009E065490868411E54
:101C7000634A116018B9092000F0F8FA70BD4FF4FA
:101C80000031604800F044FA0028EED101215D489F
:101C900000F026FA4FF480505949086009E058498D
:101CA0000868411E564A116018B90A2000F0DEFA91
:101CB000E4E755495348FFF7A7FF0028EFD0534802
:101CC000017800224F4800F0C6FA4FF480504C498A
:101CD000086009E04A490868411E494A116018B97C
:101CE0000B2000F0C3FAC9E749494648FFF78CFFCB
:101CF0000028EFD001214348FFF7A1FF31464148BA
:101D000000F0B2FA4FF480503D49086009E03C49C8
:101D10000868411E3A4A116018B90C2000F0A6FA72
:101D2000ACE73B49891C3748FFF76EFF0028EED02F
:101D30000121344800F0D4F94FF480503049086054
:101D400009E02F490868411E2D4A116018B90D207D
:101D500000F08CFA92E72C492A48FFF755FF00283B
:101D6000EFD02A4801780122264800F074FA4FF497
:101D700080502349086009E021490868411E204A33
:101D8000116018B90E2000F071FA77E71E49491C5E
:101D90001C48FFF739FF0028EED029E0012C0AD1BA
:101DA00000211848FFF724FF0121164800F0A4F98C
:101DB0000520FFF752FA4FF420401149086009E06E
:101DC0000F490868411E0E4A116018B9032000F03F
:101DD0004DFA53E70C493F310A48FFF715FF002839
:101DE000EED0084800F033FA28706D1C601E84B2F3
:101DF000002CD3D101210348FFF7FAFE01203DE773
:101E00007C01002000580040010003007801002000
:101E1000820007002DE9F04707460D4614464FF0B3
:101E20000008C146C24600262846E91705EB517155
:101E3000C910A5EBC10101F0FF0ACAF10800C6B242
:101E40002046E11704EB5171C1F3C708E11704EB19
:101E50005171C910A4EBC10101F0FF09BAF1000FE3
:101E600028D1B8F1000F07D14A462946384600F07C
:101E70006DF800F007F960E00AE0082229463846CC
:101E800000F064F800F0FEF805F10800C5B208376C
:101E9000B8F10000A8F1010101F0FF08EDD1B9F19E
:101EA000000F4AD04A462946384600F04FF800F065
:101EB000E9F842E0B8F1000F07D14A462946384612
:101EC00000F044F800F0DEF837E0A01B84B22046B2
:101ED000E11704EB5171C1F3C708E11704EB51712D
:101EE000C910A4EBC10101F0FF094EB132462946E9
:101EF000384600F02BF800F0C5F8A819C5B23744F1
:101F00000AE008222946384600F020F800F0BAF826
:101F100005F10800C5B20837B8F10000A8F10101C9
:101F200001F0FF08EDD1B9F1000F06D04A4629466D
:101F3000384600F00BF800F0A5F8BDE8F087000087
:101F4000A0200149088070477801002070B5044640
:101F50000E4615464FF420404549086009E04449C3
:101F60000868411E424A116018B9042000F07EF949
:101F700070BD4FF400313F4800F0CAF80028EED1A0
:101F800001213C4800F0ACF84FF48050384908601B
:101F900009E037490868411E354A116018B9052023
:101FA00000F064F9E4E734493248FFF72DFE0028D9
:101FB000EFD03248017800222E4800F04CF94FF45F
:101FC00080502B49086009E029490868411E284AC9
:101FD000116018B9062000F049F9C9E728492548D9
:101FE000FFF712FE0028EFD03146224800F03CF9FE
:101FF0004FF480501E49086009E01D490868411EE1
:102000001B4A116018B9072000F030F9B0E71C49ED
:10201000891C1848FFF7F8FD0028EED01AE0217857
:10202000144800F021F9641C4FF4805010490860F6
:1020300009E00F490868411E0D4A116018B90820CF
:1020400000F014F994E70E49891C0A48FFF7DCFDFB
:102050000028EED0281EA5F10101CDB2DFD101216B
:10206000044800F049F80520FFF7F7F801207FE762
:102070007C0100200058004001000300780100208E
:102080008200070008B50020009000BF0121114820
:1020900000F026F814210F4800F0CEF800900E480A
:1020A000017800220B4800F0D6F81421094800F00E
:1020B000C3F800F002000028E8D008490548FFF7FF
:1020C000B8FD0121034800F017F80520FFF7C5F817
:1020D00008BD0000005800407801002000040010F6
:1020E00021B1028842F48072028004E002884FF637
:1020F000FF631A400280704721B1028842F40072E7
:10210000028004E002884FF6FF531A4002807047B5
:102110000CB50246002000230193009300920B0FA0
:10212000019321F07F41019B1BB1009B143300936D
:1021300003E0090C009B18330093009B1B680B40C5
:102140000BB1012000E000200CBD00002DE9F043A0
:1021500085B004460D460026B1460427DFF8CC8042
:10216000A6884FF6C0700640684602F007F9DDF811
:1021700008802F48B8FBF0F01FFA80F946EA0906FC
:10218000A68020884FF6FE7108402080002629494D
:10219000286888420CD828684000B8FBF0F087B265
:1021A000042F00DA04273E4309F10100208427E0D0
:1021B000E8884BF6FF71884206D1286800EB4000A2
:1021C000B8FBF0F087B209E0286800EBC00101EB32
:1021D0000010B8FBF0F087B247F48047C7F30B005C
:1021E00008B947F0010747F4004006434FF49670E2
:1021F00009FB00F04FF47A7190FBF1F0401C208451
:10220000A683208840F00100208026884FF6F53014
:102210000640A8886989084306432680A889298939
:102220000843208105B0BDE8F083000000127A0069
:1022300040420F00A086010008B502460020009031
:1022400000920098084400900098008808BD01465C
:10225000088AC0B2704712B141F0010102E04FF6A6
:10226000FE731940018270470182704710B5044621
:10227000214602A003F0D6FC002010BD3C3C2D45B9
:102280004550524F4D2D4552524F522D3E3E204902
:10229000324320B5C8B4FDB3ACCAB1216572726FC8
:1022A00072436F6465203D2025640A0010B5044622
:1022B000214602A003F0B6FC002010BD49324320A5
:1022C000B5C8B4FDB3ACCAB12120B4EDCEF3B4FAB5
:1022D000C2EB3A2045565F25640D0A0010B57D20FB
:1022E00002F0B6F808B102F03FF810BD70B505462F
:1022F0000C4645F2555000F03BF8284600F02CF80B
:10230000204600F02FF800F01FF800F001F870BD33
:102310004CF6CC4001490860704700000030004096
:1023200010B500F011F810BD10B57D2002F090F846
:1023300008B1012010BD0020FCE710B540F2DC51CF
:102340000420FFF7D3FF10BD4AF6AA200149086018
:1023500070470000003000400149486070470000AD
:1023600000300040014988607047000000300040A4
:1023700001490860704700000030004030B595B05A
:102380000024002500BF09E00120FEF756FFFEF7FC
:10239000D7FA01A941F82400601CC4B2142CF3DB65
:1023A000142101A803F008FD002409E001AA601D22
:1023B00052F820102846FDF7B5FE0546601CC4B251
:1023C0000A2CF3DB02492846FDF736FF15B030BD75
:1023D0000000204108B50121082001F0B5FF4FF4AD
:1023E000E040ADF8000004208DF803006946024883
:1023F000FFF748FB08BD0000000C014010B50B487A
:10240000007808B9FEF7C6FD08480078C0EBC000A8
:102410000749084407490978445C14B1002000F0DA
:102420000DF8054951F82400804710BD60000020D8
:10243000A400002061000020080100200E2801DA1D
:10244000014908707047000060000020072801DA89
:1024500001490870704700006100002010B500F0CD
:1024600043F8204908700846007818B902F0FEFACF
:102470001C4908701B4800780B2830D2DFE800F0B8
:1024800006070B0F13171B1F23272B0028E0012023
:10249000FFF7D4FF24E00220FFF7D0FF20E0032065
:1024A000FFF7CCFF1CE00720FFF7C8FF18E008206B
:1024B000FFF7C4FF14E00920FFF7C0FF10E00A2077
:1024C000FFF7BCFF0CE00B20FFF7B8FF08E00C2083
:1024D000FFF7B4FF04E00420FFF7B0FF00E000BF07
:1024E00000BF10BD340000202DE9FC41002400276E
:1024F0004FF4FA7596262A4903C9CDE9000100BFB9
:102500004AE03DF814102748FFF747FB012841D166
:1025100025480078322804DA002023490870BDE8F5
:10252000FC8109E0681E85B242F6E06700BF381EF4
:10253000A7F101018FB2FAD13DF814101948FFF745
:102540002CFB012801D1002DECD1E5B109E0701E72
:1025500086B242F6E06700BF381EA7F101018FB2D4
:10256000FAD13DF814100F48FFF717FB08B9002EF9
:10257000EDD116B9601CC0B2D1E79620FEF75DFE22
:10258000201DC0B2CBE72DB9002007490870E01D1F
:10259000C0B2C4E7601CC4B2032CB2DB0020BEE7AB
:1025A000406F0008000C01405E00002000BFFEE705
:1025B00010B512A20121032001F04CFD3C220121A3
:1025C000032001F07FFC3E221021032001F07AFC61
:1025D00022220521032001F0AFFC23220721032042
:1025E00001F0AAFC24220921032001F0A5FC2522E8
:1025F0000B21032001F0A0FC10BD000020202020B2
:10260000202020202020202020202020000000004A
:1026100010B512A20121032001F01CFD3C22012172
:10262000032001F04FFC3E221021032001F04AFC60
:1026300003220521104601F07FFC0422072103201C
:1026400001F07AFC10220921032001F075FC1B2205
:102650000B21032001F070FC10BD00002020202081
:1026600020202020202020202020202000000000EA
:1026700010B50FA20121032001F0ECFC3C22012146
:10268000032001F01FFC3E221021032001F01AFC60
:1026900000220621032001F04FFC01220821032023
:1026A00001F04AFC02220A21032001F045FC10BD82
:1026B000202020202020202020202020202020201A
:1026C0000000000010B512A20121032001F0C2FC9D
:1026D0003C220121032001F0F5FB3E2210210320C2
:1026E00001F0F0FB05221146032001F025FC082231
:1026F0000721032001F020FC10220921032001F012
:102700001BFC1B220B21032001F016FC10BD000056
:1027100020202020202020202020202020202020B9
:102720000000000010B512A20121032001F092FC6C
:102730003C220121032001F0C5FB3E221021032091
:1027400001F0C0FB0D220521032001F0F5FB1C2246
:102750000721032001F0F0FB1D220921032001F0D5
:10276000EBFB1E220B21032001F0E6FB10BD000055
:102770002020202020202020202020202020202059
:102780000000000070B5044601F08EFE054637A239
:102790000121042001F05EFC20220121042001F02F
:1027A000CBFB21220321042001F0C6FB3A220521A4
:1027B000042001F087FBACB94EF6FF7005402846B7
:1027C00003F026FA26220B21042001F0B5FB222279
:1027D0000D21042001F0B0FB23220F21042001F081
:1027E000ABFB41E0012C14D145F48055284603F0A1
:1027F0000FFA27220B21042001F09EFB22220D213B
:10280000042001F099FB23220F21042001F094FB06
:102810002AE0022C28D105F4805018B1B0F5805F71
:1028200020D10FE026220B21042001F085FB22227B
:102830000D21042001F080FB23220F21042001F050
:102840007BFB10E027220B21042001F075FB2222E4
:102850000D21042001F070FB23220F21042001F040
:102860006BFB00E000BF00BF70BD000020202020F7
:1028700020202020202020202020202000000000D8
:1028800070B5044601F010FE054626A20121042081
:1028900001F0E0FB20220121042001F04DFB212268
:1028A0000321042001F048FB3A220521042001F015
:1028B00009FB74B94DF6FF700540284603F0A8F9EE
:1028C000002002F03DFA1CA20E21042001F0C2FB00
:1028D00026E0012C0DD145F40055284603F098F967
:1028E000012002F02DFA15A20D21042001F0B2FB07
:1028F00016E0022C14D105F4005018B1B0F5005FB9
:102900000CD105E00CA20E21042001F0A3FB06E08F
:102910000AA20D21042001F09DFB00E000BF00BFD2
:1029200070BD0000202020202020202020202020FA
:10293000202020200000000036355700313030576D
:102940000000000070B5044601F0AEFD05463CA253
:102950000121042001F07EFB20220121042001F04E
:10296000EBFA21220321042001F0E6FA3A220521A4
:10297000042001F0A7FA74B94BF6FF700540284611
:1029800003F046F9002002F001FA32A20E210420E1
:1029900001F060FB53E0012C3AD145F48045284614
:1029A00003F036F9012002F0F1F92BA201210320F6
:1029B00001F050FB2DA20121042001F04BFBFFF799
:1029C000AFFC40F2DC50FEF738FCFFF7A9FC1CA27C
:1029D0000121032001F03EFB19A20121042001F096
:1029E00039FBFFF76FFE20220121042001F0A4FA39
:1029F00021220321042001F09FFA3A22052104201C
:102A000001F060FA1DA20E21042001F023FB16E064
:102A1000022C14D105F4804018B1B0F5804F0CD1D0
:102A200005E00CA20E21042001F014FB06E013A225
:102A30000E21042001F00EFB00E000BF00BF70BDBE
:102A40002020202020202020202020202020202086
:102A500000000000323556004D7573742062652009
:102A60006F70657261746564000000006F6E206CA9
:102A70006F616420202121210000000033335600C3
:102A800070B5044601F010FD054621A20121042085
:102A900001F0E0FA20220121042001F04DFA212268
:102AA0000321042001F048FA3A220521042001F014
:102AB00009FA3CB9C5F30E0513220F21042001F0D9
:102AC0003BFA20E0012C07D145F4004514220F21E8
:102AD000042001F031FA16E0022C14D105F4004074
:102AE00018B1B0F5004F0CD105E013220F210420DE
:102AF00001F022FA06E014220F21042001F01CFA52
:102B000000E000BF00BF284603F082F870BD00005F
:102B100020202020202020202020202020202020B5
:102B2000000000007047000070B5002100230F2254
:102B3000C47804B3154C246804F4E064C4F5E0647C
:102B4000210AC1F10403CA40447804FA03F18478ED
:102B50001440214309010E4C0678A155047804F075
:102B60001F050124AC4005786D11AD0005F1E0258D
:102B7000C5F8004109E0047804F01F050124AC40C9
:102B8000044D0678761145F8264070BD0CED00E046
:102B900000E400E080E100E002490143024A1160E4
:102BA000704700000000FA050CED00E010B50024AD
:102BB000A2480078002870D1A14800780A2812D1D4
:102BC000A048008800F2DC509F49098888420ADB4F
:102BD00001F0CAFC00B901249B48008800F57A7016
:102BE00099490880BBE0964800780B2828D1954881
:102BF000008800F5166094490988884220DB9248D5
:102C00000088643090490880904991480068FDF739
:102C100069FDE7D18C4800886438B0F57A7FE1DC43
:102C200001F0A2FC0028DDD1012001F08DFC4FF461
:102C30009670FEF702FB002001F086FC01248EE076
:102C40007F4800780D2829D17E48008800F6BA1008
:102C50007D490988884221DB7B4800880A307A490F
:102C600008807A497A480068FDF73CFD77D17648BC
:102C700000880A38B0F57A7F71DC01F075FC002815
:102C80006DD1012001F060FC4FF49670FEF7D5FA8B
:102C9000002001F059FC012461E02BE06848007835
:102CA0000E285CD16748008800F6C3106649098881
:102CB000884254DB64480088401C634908806349AB
:102CC00063480068FDF70EFD49D15F480088401E4B
:102CD000B0F57A7F43DC01F047FC60BB012001F0D6
:102CE00033FC4FF49670FEF7A8FA002001F02CFC9C
:102CF000012434E051480078E8B1564800780B28A8
:102D00000AD155480088B0F5FA7F05DC52480088A2
:102D100064305149088022E04E4800780D280BD1DC
:102D20004D48008840F24E21884205DC4A48008820
:102D30000A304949088012E0464800780E280AD136
:102D400045480088B0F5167F05DA43480088401CE6
:102D50004149088003E04FF416703F490880FDF7B1
:102D6000F5FF9CB138490988A1F57A7188B201F064
:102D700081FC4FF4AF7001F05DFC3348008801F036
:102D800067FD3548008801F055FC03E02E480088B7
:102D900001F070FC3048008801F04CFC8CB3072235
:102DA0000121032001F0C8F808220321084601F0A0
:102DB000C3F811220521032001F0BEF812220721D9
:102DC000032001F0B9F83A220921032001F07AF832
:102DD00005220121042001F0AFF80622032104207E
:102DE00001F0AAF810220521042001F0A5F8122212
:102DF0000721042001F0A0F83A220921042001F063
:102E000061F802F063F90D48007810B902F0ECF9AE
:102E100004E00A48007808B102F0A6F90A480088E0
:102E200001F05EFE0C48008801F04EFE00200B49C8
:102E300008800A20FEF701FA10BD0000660000209D
:102E4000670000206C000020620000200000A0400D
:102E50005800002068000020640000207600002058
:102E600010B50F48007850B90B200E4908700120AA
:102E70000B49087002F02AF902F076F90CE00848D4
:102E8000007848B10B2008490870002004490870F8
:102E900002F01CF902F0A8F900200449088010BDD6
:102EA00066000020680000206700002076000020F7
:102EB00010B511220721032001F03EF81F2209213D
:102EC000032001F039F84FF4FA70FEF7B6F90D4916
:102ED0000D4A127851F8220080470CA201210420EB
:102EE00001F0B8F80E4A0521042001F0B3F80120E2
:102EF0000C49087000200C4908600420FFF7A6FA6E
:102F000010BD0000900000206B0000202020202039
:102F10002020202020202020202020200000000031
:102F2000466F0008750000207C00002010B501F0FD
:102F30008DFF0CA20121042001F08CF81922072139
:102F4000042000F0F9FF1A220921042000F0F4FF08
:102F50000120094908700020084908600320FFF794
:102F600075FA10BD3C202020202020202020202089
:102F70002020203E00000000750000207C00002082
:102F800010B507220121032000F0D6FF08220321FB
:102F9000084600F0D1FF11220521032000F0CCFFEC
:102FA00012220721032000F0C7FF3A220921032043
:102FB00000F088FF05220121042000F0BDFF062259
:102FC0000321042000F0B8FF10220521042000F0A6
:102FD000B3FF12220721042000F0AEFF3A2209219C
:102FE000042000F06FFF02F071F80020084908701B
:102FF0000B200849087002F0F7F801200649087014
:103000000020064908600220FFF720FA10BD0000EA
:103010006600002067000020750000207C00002072
:1030200010B501200E49087000F0DBFD01222021BF
:10303000104600F0EDFE4FF4FA70FEF7FEF800F0D7
:10304000D0FD002000F0E2FD012001F07DFA00201B
:1030500004490870044908600520FFF7F7F910BD1E
:1030600074000020780000207C00002010B51F486C
:103070000078F8B91E4800780A281BD01D491E4860
:103080000068FDF72FFB03D1194800780B2829D0E1
:1030900017480078401E16490870084600780C282A
:1030A00003D108460078401E087002F00FF802F0C5
:1030B0009BF817E00D480078A0B1104800780B2865
:1030C00010D00E480078401E0C4908700846007861
:1030D0000C2803D108460078401E087001F0F6FF66
:1030E00002F042F800200649088010BD660000206A
:1030F000670000200000A040580000206800002069
:103100007600002010B51648007805281FD2DFE8A9
:1031100000F0030E12161A0012A20121042000F082
:1031200099FF154A0521042000F094FF10E00120CA
:10313000FFF7A6FC0CE00120FFF704FC08E00120EB
:10314000FFF79EFB04E00120FFF71CFB00E000BF3F
:1031500000BFFDF7C1FE00200849088010BD000037
:103160006B00002020202020202020202020202054
:103170002020202000000000466F0008760000207C
:1031800010B51E480078002805DD1C480078401E58
:103190001A49087002E00420184908701849174AB3
:1031A000127851F8220080471448007805281FD271
:1031B000DFE800F0030E12161A0012A2012104200B
:1031C00000F048FF144A0521042000F043FF10E0FE
:1031D0000220FFF755FC0CE00220FFF7B3FB08E0EC
:1031E0000220FFF74DFB04E00220FFF7CBFA00E0DE
:1031F00000BF00BF00200949088010BD6B000020FF
:10320000900000202020202020202020202020208E
:103210002020202000000000466F000876000020DB
:1032200010B51E480078042805DA1C480078401CB8
:103230001A49087002E00020184908701849174A16
:10324000127851F8220080471448007805281FD2D0
:10325000DFE800F0030E12161A0012A2012104206A
:1032600000F0F8FE144A0521042000F0F3FE10E0FF
:103270000220FFF705FC0CE00220FFF763FB08E0EB
:103280000220FFF7FDFA04E00220FFF77BFA00E0DE
:1032900000BF00BF00200949088010BD6B0000205E
:1032A00090000020202020202020202020202020EE
:1032B0002020202000000000466F0008760000203B
:1032C00010B51648007805281FD2DFE800F0030E7D
:1032D00012161A0012A20121042000F0BBFE154AAA
:1032E0000521042000F0B6FE10E00020FFF7C8FB27
:1032F0000CE00020FFF726FB08E00020FFF7C0FAF3
:1033000004E00020FFF73EFA00E000BF00BFFDF739
:10331000E3FD00200849088010BD00006B0000207C
:10332000202020202020202020202020202020209D
:1033300000000000466F00087600002010B50E481F
:103340000078012814D100200B4908700B4908703F
:103350000B4908800BA20121032000F07BFE09A28B
:103360000121042000F076FE0120FFF76FF800E055
:1033700000BF00BF10BD00006A00002075000020E3
:103380007600002020202020202020202020202027
:10339000202020200000000010B520213A48FEF730
:1033A00005FCA8B9012001F0CFF814220721042060
:1033B00000F0C2FD15220921042000F0BDFDC82047
:1033C000FDF73BFF31A20721042000F043FE56E049
:1033D00030480088B0F5167F24DAFEF7FBFB08BB07
:1033E00028220521042000F0A7FD27220721042020
:1033F00000F0A2FD22220921042000F09DFD2322DD
:103400000B21042000F098FDFEF78AFF40F2DC500B
:10341000FDF713FFFEF784FF1FA20421084600F00A
:1034200019FE2CE013220721042000F085FD0D2257
:103430000921042000F080FDC820FDF7FEFE13A244
:103440000721042000F006FE002001F07DF811485D
:10345000008809280FDD4FF4FA7001F00BF94FF4E2
:10346000AF7001F0E7F80B48008801F0F1F90F4860
:10347000008801F0DFF84FF4AF700D49088000209C
:103480000C49086010BD0000000C014020202020E5
:1034900000000000620000202020202020202020AA
:1034A0002020202020202020000000006400002098
:1034B000820000207C00002010B50E480078012812
:1034C00014D100200B4908700B4908700B49088083
:1034D0000BA20121032000F0BDFD09A2012104205F
:1034E00000F0B8FD0120FEF7B1FF00E000BF00BF13
:1034F00010BD00006A00002075000020760000204A
:1035000020202020202020202020202020202020BB
:103510000000000010B509480078022803D10020FF
:103520000649087004E005480078401C034908700B
:1035300001F08CFC00200249088010BD69000020C9
:103540007600002010B50948007818B90220074914
:10355000087004E005480078401E0449087001F036
:1035600075FC00200249088010BD000069000020A1
:103570007600002010B500200C490870012000F0F2
:1035800045FB0BA20121084600F064FD09A20921B8
:10359000012000F05FFD08A20121022000F05AFD89
:1035A000012006490870FEF751FF10BD740000208D
:1035B000493A0000503A0000553A000078000020D7
:1035C00010B509A20121032000F044FD06A201214B
:1035D000042000F03FFD00200849087008490870E9
:1035E0000120FEF733FF10BD2020202020202020C6
:1035F0002020202020202020000000006B00002040
:103600007500002010B543A20121032000F022FD27
:1036100040A20121042000F01DFD434843490978E0
:1036200030F82100B0F5167F24DAFEF7D3FA08BB94
:1036300028220521042000F07FFC272207210420F6
:1036400000F07AFC22220921042000F075FC2322DC
:103650000B21042000F070FCFEF762FE40F2DC500B
:10366000FDF7EBFDFEF75CFE2AA20421084600F000
:10367000F1FC43E02C482D49097830F821002C4911
:10368000088029482949097800EB810040882949A8
:103690000880012000F058FF4FF49670FDF7CDFD33
:1036A000002000F051FF002000F04EFF204800886D
:1036B000092810DD4FF4FA7000F0DCFF4FF4AF7012
:1036C00000F0B8FF1A48008801F0C2F819480088D5
:1036D00000F0B0FF03E01648008800F0CBFF15486B
:1036E000008800F0A7FF1248008801F0F9F911489E
:1036F000008801F0E9F90A20FDF79FFD00200E493E
:1037000008704FF4AF700D4908800120FEF79EFE4F
:1037100010BD00002020202020202020202020205C
:1037200020202020000000008400002069000020EC
:10373000620000206400002075000020820000204C
:1037400010B500200749087007A20121032000F0EE
:1037500081FC05A20121042000F07CFC0120FEF781
:1037600075FE10BD75000020202020202020202084
:1037700020202020202020200000000010B508A2DA
:103780000121032000F066FC05A20121042000F0C5
:1037900061FC0020074908700120FEF757FE10BDAC
:1037A0002020202020202020202020202020202019
:1037B000000000007500002010B5002012490870BC
:1037C000012000F023FA01222021104600F020FB06
:1037D0004FF4FA70FDF731FD00F003FA0BA201215E
:1037E000084600F037FC0AA20921012000F032FC53
:1037F00008A20121022000F02DFC012006490870DA
:10380000FEF724FE10BD000074000020493A0000BD
:10381000503A0000553A00007800002000B5012021
:1038200002490870FEF712FE00BD0000780000207B
:1038300010B51A480078A8B9194800780E2811D098
:1038400017480078401C16490870084600780C2874
:1038500003D108460078401C087001F037FC01F0E5
:10386000C3FC17E00D480078A0B10E4800780E2880
:1038700010D00C480078401C0A49087008460078AF
:103880000C2803D108460078401C087001F01EFC8B
:1038900001F06AFC00200449088010BD6600002089
:1038A00067000020680000207600002010B50D4859
:1038B0000078022812D100200A4908700A490870CD
:1038C0000A49086002200A49087000F08AF90020BD
:1038D00000F09CF90620FEF7B9FD00E000BF00BF34
:1038E00010BD00006A000020780000207C0000204D
:1038F0007400002010B508480078012809D1002084
:10390000064908700649088003490870FFF736FF2A
:1039100000E000BF00BF10BD6A000020750000205D
:103920007600002010B50024A048007800285AD165
:103930009F4800780A280DD19E48008840F2B54182
:10394000884207DB9B480088A0F57A709949088077
:10395000012478E0964800780B2824D19548008807
:10396000B0F5987F1FDD934800886438914908803E
:103970000846008840F2DC51884206DB8E498F48B9
:103980000068FCF7AFFE00D201248A48008840F6A8
:10399000C411884257DB884988480068FCF7A2FEBA
:1039A00051D101244FE0824800780D2809D1814887
:1039B0000088D72805DB7F4800880A387D490880C1
:1039C00041E07B4800780E2809D17A480088CE284B
:1039D00005DB78480088401E7649088033E0CD201A
:1039E000744908802FE07148007840B3744800782B
:1039F0000B2809D173480088642805DB71480088CA
:103A00006438704908801EE06D4800780D2809D19F
:103A10006C4800880A2805DB6A4800880A3869492A
:103A2000088010E0664800780E2809D165480088B3
:103A3000012805DB63480088401E6249088002E0D7
:103A4000002060490880FEF7C5F898BB59480088F7
:103A5000B0F5167F2EDA4FF41670564908805AA238
:103A60000121032000F0F6FA57A20121042000F002
:103A7000F1FA28220521042000F05EFA272207210E
:103A8000042000F059FA22220921042000F054FAFF
:103A900023220B21042000F04FFAFEF741FC40F2F4
:103AA000DC50FDF7CAFBFEF73BFC47A204210846A9
:103AB00000F0D0FA04B300F057FDE8B9012000F09F
:103AC00043FD4FF49670FDF7B8FB002000F03CFD7D
:103AD00038490988A1F57A7188B200F0CBFD4FF41E
:103AE000AF7000F0A7FD3348008800F0B1FE354804
:103AF000008800F09FFD03E02E48008800F0BAFD2A
:103B00003048008800F096FD14B9FEF763F888BBD2
:103B100007220121032000F00FFA082203210846A2
:103B200000F00AFA11220521032000F005FA122202
:103B30000721032000F000FA3A220921032000F0B7
:103B4000C1F905220121042000F0F6F90622032123
:103B5000042000F0F1F910220521042000F0ECF916
:103B600012220721042000F0E7F93A22092104205B
:103B700000F0A8F901F0AAFA0C48007810B901F099
:103B800033FB04E00948007808B101F0EDFA094878
:103B9000008800F0A5FF0B48008800F095FF0A2080
:103BA000FDF74BFB00200D49088010BD660000208A
:103BB00067000020620000200000A04158000020A3
:103BC00068000020640000202020202020202020E9
:103BD000202020202020202000000000760000204F
:103BE000704770B500240EE00021204600F0FEF87A
:103BF000002504E0002000F0BFFA681CC5B2802D4B
:103C0000F8DB601CC4B2082CEEDB70BD10B50446B6
:103C100024B10121880500F087FB04E000214FF466
:103C2000800000F081FB10BD00B585B001210820A7
:103C300000F08AFB0121880500F076FB4FF48060DC
:103C4000ADF810001C208DF8130003208DF8120031
:103C500004A91448FDF716FF4FF40060ADF81000FA
:103C600004A91048FDF70EFF4FF48060ADF80A007C
:103C70000001ADF80C000C4800904FF48040ADF806
:103C800006000020ADF804007F20ADF8080069466A
:103C90000648FEF75BFA01210448FDF7D0FF05B0A6
:103CA00000BD0000000C0140801A060000580040D2
:103CB0002DE9F0410127002688E0002408E00025D6
:103CC00001E0681C85B2B5F57A7FFADB601C84B22E
:103CD000B4F57A7FF3DBFFF7A7FFAE2000F0CEF953
:103CE00000B90027D52000F0C9F900B900278020CD
:103CF00000F0C4F900B90027A82000F0BFF900B90E
:103D000000273F2000F0BAF900B90027D32000F0C7
:103D1000B5F900B90027002000F0B0F900B900277C
:103D2000402000F0ABF900B90027A02000F0A6F970
:103D300000B90027C02000F0A1F900B90027DA205F
:103D400000F09CF900B90027122000F097F900B9A3
:103D50000027812000F092F900B90027CF2000F061
:103D60008DF900B90027D92000F088F900B90027A3
:103D7000F12000F083F900B90027DB2000F07EF984
:103D800000B90027302000F079F900B90027A420FD
:103D900000F074F900B90027A62000F06FF900B90F
:103DA00000278D2000F06AF900B90027142000F0E8
:103DB00065F900B90027AF2000F060F900B90027CD
:103DC000FFF70FFF07B104E0701C86B2052EFFF667
:103DD00074AF00BFBDE8F08110B50246012000E0DD
:103DE00050430B1EA1F10101FAD110BD70B505467B
:103DF0000C4645F0B00000F041F9102141EA1410E2
:103E000000F03CF904F00F0000F038F970BD00003C
:103E10002DE9F04106460F469046002416E07A1E32
:103E2000D1B2721E2244D0B2FFF7E0FF002509E0B4
:103E3000084901EB482105EB8412885C00F09CF9ED
:103E4000681CC5B2402DF3DB601CC4B2082CE6DB55
:103E5000BDE8F081006B00082DE9F04105460E46F3
:103E60001746721ED206110E6A1E5206100EFFF77A
:103E7000BDFF002407E0124901EB0711085D00F0C7
:103E80007BF9601CC4B2082CF5DB721ED206110E41
:103E90006A1E012303EB4202D0B2FFF7A7FF002402
:103EA00009E0074901EB071204F10801505C00F03A
:103EB00063F9601CC4B2082CF3DBBDE8F08100009C
:103EC000006F00082DE9F04105460E461746721EA8
:103ED000D206110E6A1E5206100EFFF787FF00244D
:103EE00009E0A7F12001134A02EB0111085D00F07F
:103EF00043F9601CC4B2082CF3DB721ED206110E0B
:103F00006A1E012303EB4202D0B2FFF76FFF0024C9
:103F10000BE0A7F12001074A02EB011204F10801AE
:103F2000505C00F029F9601CC4B2082CF1DBBDE83C
:103F3000F0810000505F00082DE9F04105460E4673
:103F40001746721ED206110E6A1E5206100EFFF799
:103F50004DFF002407E0124901EB4711085D00F016
:103F60000BF9601CC4B2102CF5DB721ED206110EC8
:103F70006A1E012303EB4202D0B2FFF737FF002491
:103F800009E0074901EB471204F11001505C00F011
:103F9000F3F8601CC4B2102CF3DBBDE8F081000024
:103FA000E06500082DE9F04780460E4617461D469D
:103FB000002415E0281B411E0A20FFF70DFFB7FB68
:103FC000F0F00A21B0FBF1F201FB120000F1300920
:103FD0003019C1B24A464046FFF774FF601CC4B2B4
:103FE000AC42E7DBBDE8F0872DE9F04105460E461F
:103FF0001746721ED206110E6A1E5206100EFFF7E9
:10400000F5FE002407E0124901EB0711085D00F0FE
:10401000B3F8601CC4B2082CF5DB721ED206110E78
:104020006A1E012303EB4202D0B2FFF7DFFE002439
:1040300009E0074901EB071204F10801505C00F0A8
:104040009BF8601CC4B2082CF3DBBDE8F0810000D3
:10405000406500082DE9F04107460E46154600244C
:1040600007E02A5D3019C1B23846FFF72BFF601C0C
:10407000C4B2285D0028F4D1BDE8F08110B5044633
:1040800001213948FEF72CF84FF480503749086079
:104090000AE036490868411E344A116020B90520FB
:1040A000FEF704F9C0B210BD31492F48FDF7ACFD51
:1040B0000028EED0002278212B48FEF7CCF84FF4F0
:1040C00080502A4908600AE028490868411E274AAA
:1040D000116020B90620FEF7E9F8C0B2E3E72549F0
:1040E0002148FDF791FD0028EED000211E48FEF783
:1040F000BBF84FF480501D4908600AE01B4908686E
:10410000411E1A4A116020B90820FEF7CFF8C0B24C
:10411000C9E71849891E1448FDF776FD0028EDD03F
:1041200021461148FEF7A0F84FF480500F4908606F
:104130000AE00E490868411E0C4A116020B952205D
:10414000FEF7B4F8C0B2AEE70A49891C0648FDF78D
:104150005BFD0028EDD001210348FDF7CDFF0520D0
:10416000FDF77BF801209EE7005800401800002072
:10417000010003008200070010B504460121394800
:10418000FDF7AEFF4FF48050374908600AE036492A
:104190000868411E344A116020B90520FEF786F8F0
:1041A000C0B210BD31492F48FDF72EFD0028EED0DA
:1041B000002278212B48FEF74EF84FF480502A4910
:1041C00008600AE028490868411E274A116020B9A2
:1041D0000620FEF76BF8C0B2E3E725492148FDF75A
:1041E00013FD0028EED040211E48FEF73DF84FF4A5
:1041F00080501D4908600AE01B490868411E1A4AA0
:10420000116020B90820FEF751F8C0B2C9E718497B
:10421000891E1448FDF7F8FC0028EDD0214611480E
:10422000FEF722F84FF480500F4908600AE00E496B
:104230000868411E0C4A116020B95220FEF736F87A
:10424000C0B2AEE70A49891C0648FDF7DDFC00282C
:10425000EDD001210348FDF74FFF0520FCF7FDFFDE
:1042600001209EE7005800401800002001000300D4
:1042700082000700704710B5FEF752F800F0ACFD61
:10428000FEF7ECF8FEF7BAF810BD000010B5FEF727
:1042900047F800F0A1FDFEF7E1F8FEF7AFF8FDF7F3
:1042A00093FCC0B90C480078012808DBFDF71CFA24
:1042B000FCF7E2FFFDF774F9002007490870074892
:1042C0000088B0F5FA7F04DB01F020F900200349F3
:1042D000088001F0A9F810BD140000203200002071
:1042E00010B5FEF71DF8FEF7B9F8FEF787F810BD18
:1042F00001460020034A506820F4404008435060C3
:10430000704700000010024029B1064A526902437A
:10431000044B5A6104E0034A52698243014B5A61DB
:10432000704700000010024029B1064AD2690243DA
:10433000044BDA6104E0034AD2698243014BDA613B
:10434000704700000010024029B1064A92690243FA
:10435000044B9A6104E0034A92698243014B9A61DB
:1043600070470000001002400348406A40F080702F
:1043700001494862704700000010024030B500213A
:104380000022002400232D4D6D6805F00C0121B1A1
:10439000042905D0082923D105E0294D056022E034
:1043A000274D05601FE0254D6D6805F47012234D03
:1043B0006D6805F48034022505EB92421CB9214D4D
:1043C000554305600BE01D4D6D6805F400351DB1CA
:1043D0001C4D5543056002E0194D5543056002E050
:1043E000174D056000BF00BF144D6D6805F0F0016A
:1043F0000909154D6B5C0568DD4045600F4D6D6822
:1044000005F4E061090A104D6B5C4568DD4085608C
:104410000A4D6D6805F46051C90A0B4D6B5C456827
:10442000DD40C560054D6D6805F44041890B074DC1
:104430006B5CC568B5FBF3F5056130BD001002404B
:1044400000127A0000093D0000000020100000204A
:1044500010B501460022002300204A11012A02D192
:10446000094C236806E0022A02D1074C236A01E0C6
:10447000054C636A01F01F02012494401C400CB1FA
:10448000012000E0002010BD0010024008B50548E2
:104490000078801CC1B202226846FDF7DDFBBDF842
:1044A000000008BD8000002008B5022211466846C1
:1044B000FDF7D2FBBDF8000008BD000008B50222E0
:1044C000034801786846FDF7C7FBBDF8000008BD4A
:1044D0008000002010B5012000F036F84FF49670EF
:1044E000FCF7ABFE132207210420FFF725FD0D2268
:1044F00009210420FFF720FDC820FCF79EFE0EA234
:1045000007210420FFF7A6FD002000F01DF80C484D
:10451000008809280FDD4FF4FA7000F0ABF84FF473
:10452000AF7000F087F80648008800F091F9054860
:10453000008800F07FF810BD20202020000000003F
:10454000620000206400002010B5044624B1202140
:104550000448FDF736FB03E020210248FDF72FFB5E
:1045600010BD0000000C014010B520210348FDF7EC
:104570001DFB08B1012010BD0020FCE7000C01402C
:1045800010B504462CB14FF480510548FDF719FBD6
:1045900004E04FF480510248FDF711FB10BD00000C
:1045A0000008014010B54FF480510448FDF7FEFAB1
:1045B00008B1012010BD0020FCE700000008014008
:1045C00008B501210820FFF7BFFE2020ADF800004C
:1045D00010208DF8030003208DF8020069460F4873
:1045E000FDF750FA20210D48FDF7EBFA01210420D8
:1045F000FFF7AAFE4FF48050ADF8000010208DF8B0
:10460000030003208DF8020069460548FDF73AFAD9
:104610004FF480510248FDF7D2FA08BD000C01406A
:104620000008014010B5FFF7CBFFFCF70FFBFCF7CC
:1046300023FB10BD2DE9F041044600252046FBF781
:10464000CAFF80460849FBF7F7FD07460749FBF715
:10465000C1FD0646FBF7D1FF85B22946044801F0AB
:104660003AF9BDE8F081000000C04944000061450E
:10467000002C01402DE9FC5F82464FF0000B00202A
:1046800001906A48007800287ED0BAF57A7F4BDC2A
:10469000FFF788FF012812D1FFF766FF78B90120E4
:1046A000FFF752FF4FF49670FCF7C7FD0020FFF7AD
:1046B0004BFF0020FFF764FF0A20FCF7BEFD5046C9
:1046C000FBF78EFF04465A4A5A4BFBF7D7FF04D23A
:1046D0000021594801F0FDF8A5E05046FBF780FFA6
:1046E0000646534A534BFBF786FE0446FBF799FFF9
:1046F00080B201900198FBF76EFF0090FBF7AAFFD4
:1047000080464E4A4E4BFBF7EEFE064600224D4BCE
:10471000FBF777FE0446FBF784FF1FFA80FB594640
:10472000454801F0D6F87EE05046FBF759FF0646B3
:104730003F4A454BFBF75FFE0446FBF772FF80B232
:1047400001900198FBF747FF0090FBF783FF80463D
:104750003A4A3E4BFBF7C7FE06460022394BFBF7B1
:1047600050FE0446FBF75DFF1FFA80FB59463248B6
:1047700001F0AFF8FFF716FF002854D1FFF7F4FE61
:10478000002850D1012000E00CE0FFF7DDFE4FF4DF
:104790009670FCF752FD0020FFF7D6FE0120FFF7D0
:1047A000EFFE40E0FFF7FEFE48B90120FFF7CCFE28
:1047B0004FF49670FCF741FD0120FFF7E1FE5046F3
:1047C000FBF70EFF04461A4A1F4BFBF757FF04D2B4
:1047D0000021194801F07DF825E05046FBF700FF65
:1047E0000646134A184BFBF706FE0446FBF719FF73
:1047F00080B201900198FBF7EEFE0090FBF72AFFD4
:1048000006460E4A114BFBF76EFE044600220D4B86
:10481000FBF7F7FD8046FBF704FF1FFA80FB5946C4
:10482000054801F056F8BDE8FC9F00005C00002040
:1048300085EB51B81EF56440002C0140703D0AD74D
:10484000A34A8A400020AC401EB781406339A6408D
:104850002DE9F04F89B005464FF0000900264FF4CE
:1048600080515048FDF799F918B34F4800F073FF95
:104870000090FBF7B0FE4D490190FBF7DDFC83464D
:10488000FBF7E8FE4A4A4B4BCDE90201FBF7B9FDC5
:104890000746494A494BFBF70DFD0022484BCDE93D
:1048A0000401FBF7AEFDCDE90601FBF7BAFE84B2C9
:1048B00022E03D4800F04FFF0090FBF78CFE83465E
:1048C0003A49FBF7B9FC0190FBF7C4FE0746384AAA
:1048D000384BFBF796FD384A384BCDE90201FBF720
:1048E000E9FC0022374BCDE90401FBF78AFDCDE955
:1048F0000601FBF796FE84B2A5424CDD281B64211D
:1049000090FBF1F000EB800080B281460646281B48
:104910001FFA80FA34E0A6EB090188B2314600F0B4
:104920003BFBFDF7FDFC3046FBF755FE0490A6EB84
:104930000900FBF747FE03900499FBF77DFC069006
:104940005046FBF748FE05900699FBF743FC83466B
:104950002046FBF740FE59460790FBF7E3FB8046F5
:10496000FBF74BFE87B23846FFF784FE42F6E06065
:10497000089000BF0898411E89B208910028F9D11B
:10498000B9F10000A9F101011FFA81F9C3D128464C
:10499000FFF770FE02E02846FFF76CFE09B0BDE8A5
:1049A000F08F000000080140002C0140000061452C
:1049B0000E2DB29DEFA7EA3F736891ED7C3FC53F96
:1049C00000AEAA4000908F401CB501210846FFF7B9
:1049D000BBFC04210020FDF735F8102000900120D9
:1049E0008DF8060000208DF804000C208DF80500DD
:1049F0006846FCF799FF1CBD10B500F005F8FFF7FD
:104A0000E3FF00F04BF810BD08B501210820FFF7C7
:104A10009BFC4FF40040ADF8000004208DF803002B
:104A200069461048FDF72EF801210420FFF78CFCA1
:104A30004020ADF8000004208DF8030069460A48C4
:104A4000FDF720F801210420FFF77EFC1020ADF8CF
:104A5000000004208DF8030069460348FDF712F8B2
:104A600008BD0000000C01400008014010B54FF4E3
:104A700000410948FDF791F860B900BF4FF40041CB
:104A80000548FDF78AF80028F8D01E20FCF7D5FB72
:104A90000A2010BD0020FCE7000C014008B54FF4CF
:104AA000E060FEF779F80A208DF8000000208DF80C
:104AB000010002208DF8020001208DF803006846F5
:104AC000FEF732F808BD704701B504480078801C35
:104AD000C1B202226846FDF79DF908BD80000020A2
:104AE00001B50222024801786846FDF793F908BD36
:104AF0008000002038B5002000900024002501220D
:104B000000216846FDF7A8F8FCF770FE9DF800004C
:104B1000CD281AD0CD200090012200216846FDF753
:104B200079F94FF4FA70FFF7DBFF3220FFF7CCFF83
:104B30003220FFF77FFD4FF4FA70FFF79BFD322123
:104B40004FF4FA7001F012F834E09DF80000CD281F
:104B500030D1FFF7B3FC0446FFF798FC0546294621
:104B6000204600F02BF8054640F6E440844215DC70
:104B7000B5F5167F12DC1048007820B940F6C41055
:104B8000844200DD04462946204600F0EFFF284617
:104B9000FFF750FD2046FFF76DFD0BE032214FF48B
:104BA000FA7000F0E3FF3220FFF744FD4FF4FA7093
:104BB000FFF760FD38BD00003600002070B50446E8
:104BC0000D4620480068FBF718FDC0B2092806D042
:104BD0000C280ED00F2816D014282ED11DE004FB6F
:104BE00005F01949884203DD084690FBF4F085B2D0
:104BF00024E004FB05F01449884203DD084690FBDD
:104C0000F4F085B21AE004FB05F01049884203DD98
:104C1000084690FBF4F085B210E004FB05F00C4967
:104C200009680C4A1144884206D9094800681146AF
:104C30000844B0FBF4F085B200E000BF00BF284696
:104C400070BD00005800002020BF0200E86E030085
:104C50007000002010EB090010B500F001F810BD45
:104C60000CB50020019000903348006840F480307B
:104C70003149086000BF3048006800F400300090FF
:104C80000198401C0190009818B90198B0F5A06FE8
:104C9000F1D12948006800F4003010B101200090E3
:104CA00001E0002000900098012843D123480068CB
:104CB00040F01000214908600846006820F0030019
:104CC00008600846006840F0020008601A48406822
:104CD000194948600846406848600846406840F402
:104CE000806048600846406820F47C1048600846B0
:104CF000406840F4E81048600846006840F0807062
:104D0000086000BF0C48006800F000700028F9D06F
:104D10000948406820F00300074948600846406899
:104D200040F00200486000BF0348406800F00C00FB
:104D30000828F9D10CBD00000010024000200240FC
:104D4000012803D10449054A116003E010B900218C
:104D5000024A1160704700003057050070000020C3
:104D600001490870704700005C000020042802D050
:104D70000021044A117004490978884201DA024985
:104D800008707047310000203800002010B504463C
:104D9000012C04D14FF448700D49088017E0B4B9D4
:104DA00000200B4908800B48008840F6C411884257
:104DB0000DDD08460749088008460088FFF75AFCC1
:104DC00004480088FFF78CFE0A20FCF736FA10BD75
:104DD0006C0000206200002010B50024FBF7D4FD19
:104DE000B0F57A6F1DDDFBF7CFFDB0F57A6F18DDFA
:104DF000FCF7EAFE022802D10120FEF707FF04E0DB
:104E0000601CC4B20120FCF718FAFCF735FA08B9A7
:104E1000142CF5DB0748008806280ADD00BF00F0E7
:104E20000BF8FCF7D1FE022802D10020FEF7EEFEBF
:104E3000002410BD2800002000F0D2FA0120FFF766
:104E400083FB01E0FDF76CFAFCE7000010B51122CE
:104E500001210320FFF770F81A2203210846FFF70B
:104E60006BF84AA205210320FFF7F4F848484949A6
:104E7000097830F82100B0F57A7F2ADB44484549AB
:104E8000097830F82100642190FBF1F402232246D6
:104E900007210320FFF786F82E2209210320FFF7C0
:104EA00011F83B483B49097830F82100642190FB18
:104EB000F1F201FB12000A2190FBF1F401232246DA
:104EC0000320FFF76FF856220B210320FEF7FAFFAD
:104ED0002EE0202207210320FEF7F4FF2C482D4965
:104EE000097830F82100642190FBF1F40123224677
:104EF00008210320FFF756F82E2209210320FEF790
:104F0000E1FF23482349097830F82100642190FB10
:104F1000F1F201FB12000A2190FBF1F40123224679
:104F20000320FFF73FF856220B210320FEF7CAFFAC
:104F300017481849097800EB81004088642190FBEC
:104F4000F1F4012322460D210320FFF72BF82E2236
:104F50000E210320FEF7B6FF0D480E49097800EB3D
:104F600081004088642190FBF1F201FB12000A21CC
:104F700090FBF1F4012322460F210320FFF712F8E2
:104F8000412210210320FEF79DFF10BD3A200000B2
:104F900084000020690000202DE9F04706460D46F8
:104FA0002846FBF718FB81463046FBF714FB824688
:104FB0004946FBF741F980463A49FBF70BF90746AA
:104FC000FBF71BFBC4B2002C52D1374800780028F5
:104FD0004ED101203449087034A201210320FFF78B
:104FE00039F832A201210420FFF734F834A203215A
:104FF0000846FFF72FF8002203210420FEF72CFFBC
:10500000022204210846FEF727FF02220521042080
:10501000FEF722FF022206210420FEF71DFF0222D6
:1050200007210420FEF718FF022208210420FEF7C2
:1050300013FF022209210420FEF70EFF02220A219B
:105040000420FEF709FF02220B210420FEF704FFD3
:1050500002220C210420FEF7FFFE02220D21042073
:10506000FEF7FAFE01220E210420FEF7F5FE07E00E
:10507000002C05DDE01CC1B203220420FEF7ECFE8B
:105080000A2C0CD100200849087008A20121032035
:10509000FEF7E0FF05A201210420FEF7DBFFBDE8DB
:1050A000F0870000000020415D000020202020202B
:1050B0002020202020202020202020200000000070
:1050C0006C6F6164696E672E2E2E000010B522A2EF
:1050D0000A210320FEF7BEFF1FA20A210420FEF7CB
:1050E000B9FF1F480088642190FBF1F40223224697
:1050F0000A210320FEF756FF2E220C210320FEF783
:10510000E1FE17480088642190FBF1F201FB1204D4
:10511000022322460D210320FEF744FF1148008898
:10512000642190FBF1F4012322460B210420FEF7B9
:1051300039FF2E220C210420FEF7C4FE0948008806
:10514000642190FBF1F201FB1204022322460D219F
:105150000420FEF727FF10BD202020202020200063
:10516000620000206400002010B51D4800780B2864
:105170000CD11C480088642190FBF1F0C4B2224697
:10518000174801780420FEF72FFF27E01448007825
:105190000D2811D113480088642190FBF1F201FB26
:1051A00012000A2190FBF1F0C4B222460C480178AB
:1051B0000420FEF719FF11E0094800780E280DD1F0
:1051C000084800880A2190FBF1F201FB1200C4B2EA
:1051D0002246034801780420FEF706FF10BD0000B8
:1051E000680000206400002010B5294800780A28D3
:1051F0000DD1284800884FF47A7190FBF1F0C4B2C9
:105200002246234801780320FEF7EEFE3EE02048C8
:1052100000780B2812D11F4800884FF47A7190FB58
:10522000F1F201FB1200642190FBF1F0C4B22246BE
:10523000174801780320FEF7D7FE27E014480078CE
:105240000D2811D113480088642190FBF1F201FB75
:1052500012000A2190FBF1F0C4B222460C480178FA
:105260000320FEF7C1FE11E0094800780E280DD199
:10527000084800880A2190FBF1F201FB1200C4B239
:105280002246034801780320FEF7AEFE10BD000061
:10529000670000206200002010B504463548016810
:1052A0002046FBF71FFA63D032480460324920469B
:1052B000FBF718FA14D1032204210846FEF73CFE3E
:1052C000042206211046FEF737FE1722082104208B
:1052D000FEF732FE18220A210420FEF72DFE47E0D9
:1052E00026492046FBF7FEF90AD125A20221032018
:1052F000FEF7B0FE26A204210846FEF7ABFE37E01B
:1053000027492046FBF7EEF90AD11DA2022103200E
:10531000FEF7A0FE1EA204210846FEF79BFE27E032
:1053200020492046FBF7DEF90AD115A2022103200D
:10533000FEF790FE1CA204210846FEF78BFE17E044
:105340001D492046FBF7CEF912D10DA20221032000
:10535000FEF780FE1948007828B919A204210846F2
:10536000FEF778FE04E01AA204210846FEF772FE5A
:1053700010BD00003C0000200000A04000001041D3
:10538000202020202020202020202020000000009D
:10539000204D41583A20313857202020200000006D
:1053A0000000404100007041204D41583A20323207
:1053B0002E355720200000000000A04137000020BB
:1053C000204D41583A20363557202020200000003B
:1053D000204D41583A203130305720202000000025
:1053E00010B5FEF7FEFB092203210220FEF7A4FD03
:1053F0000A2205210220FEF79FFD0AA207210220B2
:10540000FEF728FE0B2209210220FEF795FD162249
:105410000B210220FEF790FD05220D210220FEF750
:105420008BFD10BD2C20000010B5264800786428A4
:1054300002DD042024490870244800781E2840DB3F
:1054400021480078042805D121A209210220FEF775
:1054500001FE33E02148007840B100201F49087068
:105460001FA209210220FEF7F5FD27E001201B49BC
:10547000087015480078012804D0022808D00328B5
:105480001AD113E019A209210220FEF7E3FD14E06E
:1054900019A209210220FEF7DDFD1948008820B17C
:1054A000FFF718F800201649088006E015A2092128
:1054B0000220FEF7CFFD00E000BF00BF002003493F
:1054C000087010BD3100002038000020300000209E
:1054D0004E6F726D616C20200000000039000020CA
:1054E00020202020202020200000000041626E6F3C
:1054F000726D616C000000004F76657272756E000F
:10550000820000204D41583A2036410010B508A2D3
:1055100001210846FEF79EFD06A209210120FEF7A3
:1055200099FD05A201210220FEF794FD10BD0000A7
:10553000493A0000503A0000553A000010B51348AF
:10554000007810BBFCF7F0FE90B111A207210220F9
:10555000FEF780FD10A207210220FEF77BFD9620BA
:10556000FBF76BFE0AA207210220FEF773FD0CE099
:10557000002220210120FEF74BFCFCF7D1FE4FF466
:10558000FA70FBF75AFEFCF7CBFE10BD3500002089
:105590002020202000000000495744470000000060
:1055A0007047000010B51348006840F00100114931
:1055B000086008464068104908400E49486008469F
:1055C00000680E4908400B4908600846006820F44E
:1055D000802008600846406820F4FE0048604FF4D0
:1055E0001F008860FFF738FB4FF000600449086037
:1055F00010BD0000001002400000FFF8FFFFF6FEA3
:1056000008ED00E010B501212F4800F0A7F80028B0
:1056100058D02E480078FF2804DA2C480078401C27
:105620002A4908702A480078FF2804DA28480078B8
:10563000401C2749087027480078FF2804DA2548CD
:105640000078401C2349087023480078FF2804DABA
:1056500021480078401C20490870204800884FF6F7
:10566000FF71884204DA1D480088401C1B490880ED
:105670001B48007801280AD11A4800680021401C04
:10568000894104DA17480068401C1649086016482A
:10569000007801280AD1154800884FF6FF7188422A
:1056A00004DA12480088401C10490880104800881D
:1056B00020B10F480088401E0D4908800121024892
:1056C00000F02BF810BD0000000800403000002062
:1056D00014000020310000205E0000203200002075
:1056E000780000207C00002075000020760000205B
:1056F000820000200A884B881A438B881A43CB8883
:105700001A430B891A434B891A438B891A43A0F811
:1057100044207047CA4302827047CA4302827047DE
:1057200021B1028842F00102028004E002884FF6B3
:10573000FE731A400280704731B1B0F8442042F441
:105740000042A0F8442005E0B0F84420C2F30E0265
:10575000A0F8442070470146888E704730B5024655
:10576000002000230024158A05EA0103958905EA33
:10577000010413B10CB1012000E0002030BD1AB1CA
:1057800083890B43838102E083898B438381704744
:1057900070B5002400220023058C4FF6FE763540BC
:1057A0000584028C8388048B4FF68F752C40B51EC0
:1057B0002C400D882C43751E2A400D892A434D88A4
:1057C0002A43144DA8420BD0134DA84208D0134DC4
:1057D000A84205D0124DA84202D0124DA84213D1C2
:1057E0004FF6F7752A404D892A434FF6FB752A403C
:1057F0008D882A434FF6FF652B404FF6FF552B400F
:105800008D892B43CD892B4383800483CD88858666
:10581000028470BD002C0140003401400040014072
:1058200000440140004801400A460021018B4FF628
:10583000F7731940114301837047000070B50022CF
:1058400000230024058C4EF6FF7635400584038C3A
:105850008488828B48F6FF752A404FF6FF452A4020
:105860000D884FF6FF7606EA05252A434DF6FF75AB
:105870002B400D8906EA05352B434D8806EA053590
:105880002B430B4DA84202D00A4DA84208D14BF63B
:10589000FF752C408D894FF6FF7606EA85152C435F
:1058A00084808283CD88A0F84050038470BD0000BE
:1058B000002C0140003401400A460021818B4FF248
:1058C000FF7319404FF6FF7303EA022319438183E4
:1058D000704781867047A0F8401070470022028808
:1058E0001D4B98420ED01D4B98420BD0B0F1804F0B
:1058F00008D01B4B984205D01A4B984202D01A4B45
:10590000984204D14FF68F731A404B881A43174BB5
:10591000984207D0164B984204D04FF6FF431A40E6
:10592000CB881A4302808B8883850B8803850A4BBA
:1059300098420BD0094B984208D00E4B984205D0A4
:105940000D4B984202D00D4B984201D10B7A038641
:105950000123838270470000002C01400034014085
:105960000004004000080040000C0040001000400F
:105970000014004000400140004401400048014044
:1059800021B1828942F40052828104E082894DF67D
:10599000FF731A408281704700B585B00121042051
:1059A000FEF7D2FC01218803FEF7CEFC4FF4007015
:1059B000ADF8000018208DF8030003208DF80200D8
:1059C00069461748FCF75EF84FF48060ADF80000B8
:1059D00004208DF8030069461148FCF753F84FF492
:1059E000E13001900020ADF810000C20ADF80E0061
:1059F0000020ADF80C00ADF80A00ADF8080001A9D0
:105A0000084800F043F8002240F22551054800F014
:105A100018F801210348FFF7B3FF05B000BD0000EF
:105A2000000801400038014002460020B1F5007F27
:105A300000D100BF13880B400BB1012000E0002013
:105A40007047F0B50346002400260025002040F6EC
:105A50006A17B94200D100BF1846C1F3421401F0E1
:105A60001F06012707FA06F5012C01D10C3004E0CE
:105A7000022C01D1103000E014301AB107682F4316
:105A8000076002E00768AF430760F0BD2DE9F0470B
:105A900086B005460E460024A24600BFA146002758
:105AA000B08900B100BF2F462C8A4CF6FF7004402D
:105AB000F08804432C82AC894EF6F3100440B08881
:105AC00031890843718908430443AC81AC8A4FF69D
:105AD000FF400440B0890443AC8201A8FEF74EFCAD
